:020000040800F2
:100000000028002095120008251200082B12000875
:1000100031120008371200083D12000800000000ED
:100020000000000000000000000000004312000873
:100030004F120008000000005B1200086712000861
:10004000DD120008DD120008DD120008DD120008D4
:10005000DD120008DD120008DD120008DD120008C4
:10006000DD120008DD120008DD120008DD120008B4
:10007000DD120008DD120008DD120008DD120008A4
:10008000DD120008DD120008DD120008DD12000894
:10009000DD120008DD120008DD120008DD12000884
:1000A000DD120008DD120008DD120008DD12000874
:1000B00075120008DD12000800000000DD120008C3
:1000C000DD1200080000000000000000DD12000842
:1000D00000000000DD120008DD1200080000000032
:1000E000DD120008DD120008DD120008000000002B
:1000F0000000000000000000000000000000000000
:0C01000000000000000000005FF808F1A3
:10010C0010B5054C237833B9044B13B10448AFF345
:10011C0000800123237010BD50000020000000005F
:10012C00DC28000808B5034B1BB103490348AFF3A7
:10013C00008008BD0000000054000020DC280008EE
:10014C0080B400AF034B01221A6000BFBD4680BCD7
:10015C00704700BF6C00002080B400AF034B01223D
:10016C001A6000BFBD4680BC704700BF7000002005
:10017C0080B400AF034B01221A6000BFBD4680BCA7
:10018C00704700BF7400002080B500AF1F4B1B6888
:10019C001F4A13601F4B1B681C4A13604FF40071FD
:1001AC001D4801F081FB03461A461A4B1A60184B86
:1001BC001A68164B1B689A4225D1144B1A68154BBA
:1001CC001B689A421FD1154B1A68124B1B689A4236
:1001DC000DD0104B1B68114A13600E4B1B68002B83
:1001EC0011D1FFF7ADFF0E4BC8221A600BE00C4B80
:1001FC001B68013B0A4A1360094B1B68002B02D198
:10020C00064B01221A6000BF80BD00BF0400002015
:10021C000000002008000020000C01400C00002011
:10022C003000002080B500AF1F4B1B681F4A1360C5
:10023C001F4B1B681C4A13604FF480611D4801F072
:10024C0033FB03461A461A4B1A60184B1A68164BA6
:10025C001B689A4225D1144B1A68154B1B689A429D
:10026C001FD1154B1A68124B1B689A420DD0104BBC
:10027C001B68114A13600E4B1B68002B11D1FFF742
:10028C006BFF0E4BC8221A600BE00C4B1B68013B3A
:10029C000A4A1360094B1B68002B02D1064B012242
:1002AC001A6000BF80BD00BF1400002010000020A9
:1002BC0018000020000C01401C000020340000201D
:1002CC0080B500AF1F4B1B681F4A13601F4B1B6888
:1002DC001C4A13604FF400611D4801F0E5FA034617
:1002EC001A461A4B1A60184B1A68164B1B689A421E
:1002FC0025D1144B1A68154B1B689A421FD1154B0C
:10030C001A68124B1B689A420DD0104B1B68114A8D
:10031C0013600E4B1B68002B11D1FFF729FF0E4BFE
:10032C00C8221A600BE00C4B1B68013B0A4A136095
:10033C00094B1B68002B02D1064B01221A6000BF2F
:10034C0080BD00BF240000202000002028000020D9
:10035C00000C01402C0000203800002080B582B039
:10036C0000AF78607B68092B00F2BC8101A252F8C7
:10037C0023F000BFA9030008FD0300085104000886
:10038C00A5040008F90400084D050008A1050008A3
:10039C00F5050008490600089D060008002280218A
:1003AC00D34801F098FA00224FF48071D04801F044
:1003BC0092FA00224FF40071CD4801F08CFA002221
:1003CC004FF48061CA4801F086FA00224FF40061B4
:1003DC00C74801F080FA00224FF48051C44801F064
:1003EC007AFA01224FF40051C14801F074FA7AE113
:1003FC0001228021BE4801F06EFA00224FF4807178
:10040C00BB4801F068FA00224FF40071B84801F0C3
:10041C0062FA01224FF48061B54801F05CFA0122C6
:10042C004FF40061B24801F056FA01224FF48051AA
:10043C00AF4801F050FA01224FF40051AC4801F0E2
:10044C004AFA50E100228021A94801F044FA002226
:10045C004FF48071A64801F03EFA01224FF400716E
:10046C00A34801F038FA00224FF48061A04801F053
:10047C0032FA00224FF400619D4801F02CFA01225F
:10048C004FF480519A4801F026FA00224FF40051A3
:10049C00974801F020FA26E100228021944801F0CF
:1004AC001AFA00224FF48071914801F014FA0022DC
:1004BC004FF400718E4801F00EFA00224FF4806167
:1004CC008B4801F008FA01224FF40061884801F0D2
:1004DC0002FA01224FF48051854801F0FCF9002208
:1004EC004FF40051824801F0F6F9FCE00122802122
:1004FC007F4801F0F0F900224FF480717C4801F044
:10050C00EAF900224FF40071794801F0E4F9012274
:10051C004FF48061764801F0DEF901224FF400615E
:10052C00734801F0D8F900224FF48051704801F063
:10053C00D2F900224FF400516D4801F0CCF9D2E011
:10054C00002280216A4801F0C6F901224FF4807123
:10055C00674801F0C0F900224FF40071644801F0C3
:10056C00BAF900224FF48061614801F0B4F901221C
:10057C004FF400615E4801F0AEF900224FF4805157
:10058C005B4801F0A8F900224FF40051584801F0E3
:10059C00A2F9A8E000228021554801F09CF9012223
:1005AC004FF48071524801F096F900224FF400711B
:1005BC004F4801F090F900224FF480614C4801F053
:1005CC008AF900224FF40061494801F084F90022B5
:1005DC004FF48051464801F07EF900224FF400514F
:1005EC00434801F078F97EE000228021404801F078
:1005FC0072F900224FF480713D4801F06CF9002231
:10060C004FF400713A4801F066F901224FF4806111
:10061C00374801F060F901224FF40061344801F0D1
:10062C005AF901224FF48051314801F054F901225A
:10063C004FF400512E4801F04EF954E00022802175
:10064C002B4801F048F900224FF48071284801F042
:10065C0042F900224FF40071254801F03CF90022C8
:10066C004FF48061224801F036F900224FF400610A
:10067C001F4801F030F900224FF480511C4801F062
:10068C002AF900224FF40051194801F024F92AE00C
:10069C0000228021164801F01EF900224FF48071CF
:1006AC00134801F018F900224FF40071104801F0C2
:1006BC0012F900224FF480610D4801F00CF901226F
:1006CC004FF400610A4801F006F900224FF4805102
:1006DC00074801F000F900224FF40051044801F0E2
:1006EC00FAF800E000BF00BF0837BD4680BD00BF70
:1006FC000008014080B582B000AF78607B68092BA0
:10070C0000F2808101A252F823F000BF41070008DB
:10071C0089070008D10700081908000861080008BB
:10072C00A9080008F1080008390900088109000827
:10073C00C909000800220121B54801F0CCF80022BB
:10074C000221B34801F0C7F800220421B04801F09F
:10075C00C2F800220821AE4801F0BDF80022102199
:10076C00AB4801F0B8F800222021A94801F0B3F8F9
:10077C0001224021A64801F0AEF844E101220121FA
:10078C00A34801F0A8F800220221A14801F0A3F827
:10079C00002204219E4801F09EF8012208219C4869
:1007AC0001F099F801221021994801F094F80122E6
:1007BC002021974801F08FF801224021944801F044
:1007CC008AF820E100220121914801F084F80022EE
:1007DC0002218F4801F07FF8012204218C4801F09E
:1007EC007AF8002208218A4801F075F800221021BD
:1007FC00874801F070F801222021854801F06BF840
:10080C0000224021824801F066F8FCE00022012120
:10081C007F4801F060F8002202217D4801F05BF86E
:10082C00002204217A4801F056F800220821784869
:10083C0001F051F801221021754801F04CF8012209
:10084C002021734801F047F800224021704801F044
:10085C0042F8D8E0012201216D4801F03CF8002259
:10086C0002216B4801F037F800220421684801F09E
:10087C0032F801220821664801F02DF801221021DE
:10088C00634801F028F800222021614801F023F888
:10089C00002240215E4801F01EF8B4E00022012144
:1008AC005B4801F018F801220221594801F013F8B5
:1008BC0000220421564801F00EF800220821544869
:1008CC0001F009F801221021514801F004F800222E
:1008DC0020214F4800F0FFFF002240214C4800F03F
:1008EC00FAFF90E000220121494800F0F4FF0122B8
:1008FC000221474800F0EFFF00220421444800F099
:10090C00EAFF00220821424800F0E5FF00221021F6
:10091C003F4800F0E0FF002220213D4800F0DBFFC3
:10092C00002240213A4800F0D6FF6CE00022012161
:10093C00374800F0D0FF00220221354800F0CBFFF1
:10094C0000220421324800F0C6FF01220821304861
:10095C0000F0C1FF012210212D4800F0BCFF012244
:10096C0020212B4800F0B7FF01224021284800F03D
:10097C00B2FF48E000220121254800F0ACFF002224
:10098C000221234800F0A7FF00220421204800F098
:10099C00A2FF002208211E4800F09DFF002210211A
:1009AC001B4800F098FF00222021194800F093FF0B
:1009BC0000224021164800F08EFF24E00022012185
:1009CC00134800F088FF00220221114800F083FF39
:1009DC00002204210E4800F07EFF002208210C4862
:1009EC0000F079FF01221021094800F074FF002269
:1009FC002021074800F06FFF00224021044800F03E
:100A0C006AFF00E000BF00BF0837BD4680BD00BFD5
:100A1C00000C014080B582B000AF78607B68002B81
:100A2C0003D07B68012B22D042E000224FF480419E
:100A3C00214800F050FF01224FF400411E4800F005
:100A4C004AFF002280211D4800F045FF01224FF48F
:100A5C0080711A4800F03FFF194B1B681846FFF7CE
:100A6C007DFC184B1B681846FFF744FE20E0012262
:100A7C008021114800F02FFF00224FF480710E48A6
:100A8C0000F029FF012280210C4800F024FF0022F5
:100A9C004FF48071094800F01EFF094B5B68184643
:100AAC00FFF75CFC074B5B681846FFF723FE00BFA3
:100ABC0000BF0837BD4680BD00080140000C014056
:100ACC007C0000208400002080B500AF304B1B68F8
:100ADC00092B06DC2F4B00221A602D4B1B682D4A6C
:100AEC0053602D4B1B68092B06DC2C4B00221A6023
:100AFC00294B1B68294A5360254B1B68092B18DDB1
:100B0C00234B1B68264A82FB03129210DB17D31A65
:100B1C00204A13601E4B1968214B83FB01239A104A
:100B2C00CB17D21A13469B0013445B00CA1A194BFD
:100B3C005A60194B1B68092B18DD174B1B68184A98
:100B4C0082FB03129210DB17D31A144A1360124B58
:100B5C001968134B83FB01239A10CB17D21A134637
:100B6C009B0013445B00CA1A0C4B5A600D4B1B685C
:100B7C005A1C0C490A601846FFF74CFF094B1B68BE
:100B8C00012B02DD074B00221A6000BF80BD00BFA5
:100B9C003C0000207C00002040000020840000204D
:100BAC00676666667800002080B500AF814B1B68D5
:100BBC00013B032B71D801A252F823F0D90B00088A
:100BCC00070C00083D0C0008730C000801220221E0
:100BDC00794800F080FE01220421774800F07BFE6A
:100BEC0001220821744800F076FE724B02221A6032
:100BFC004FF4FA7000F050FA56E0002202216E48D1
:100C0C0000F069FE012204216B4800F064FE012211
:100C1C000821694800F05FFE684B1B68012B3ED130
:100C2C00644B04221A604FF4967000F035FA36E0EB
:100C3C0001220221604800F04EFE002204215E4891
:100C4C0000F049FE012208215B4800F044FE5B4B9A
:100C5C001B68012B25D1574B02221A604FF4FA70F6
:100C6C0000F01AFA1DE001220221534800F033FE75
:100C7C0001220421504800F02EFE002208214E488B
:100C8C0000F029FE4D4B1B68012B0CD1494B032264
:100C9C001A60C82000F000FA05E000BF04E000BFB5
:100CAC0002E000BF00E000BF454B1B68013B062B78
:100CBC0076D801A252F823F0E10C0008AD0D000823
:100CCC00AD0D0008AD0D00080D0D0008430D00081A
:100CDC00790D000801221021374800F0FCFD01229B
:100CEC002021354800F0F7FD01224021324800F068
:100CFC00F2FD334B07221A604FF4967000F0E0F9C6
:100D0C00002210212C4800F0E6FD012220212A4867
:100D1C0000F0E1FD01224021274800F0DCFD294BC9
:100D2C001B68012B3ED1264B07221A604FF496709C
:100D3C0000F0C6F936E0012210211F4800F0CBFD6F
:100D4C00002220211C4800F0C6FD012240211A4837
:100D5C0000F0C1FD1B4B1B68012B25D1184B052244
:100D6C001A604FF4FA7000F0ABF91DE0012210216B
:100D7C00114800F0B0FD012220210F4800F0ABFD1E
:100D8C00002240210C4800F0A6FD0E4B1B68012BE5
:100D9C000CD10B4B06221A60C82000F091F905E02B
:100DAC0000BF04E000BF02E000BF00E000BF00BFD6
:100DBC0080BD00BF8C00002000080140980000207E
:100DCC00900000209C00002080B500AF00F082FA5B
:100DDC0000F04CF800F0D2F800F084F81B4801F059
:100DEC00BFF91B4B01221A601A4B01221A60012019
:100DFC0000F052F9012000F063F9642000F038F99A
:100E0C00FFF7D2FE144B1B68012B0CD1642000F0B1
:100E1C002FF9124B1B68013B104A1360104B1B68D7
:100E2C00013B0F4A13600F4B1B68012B04D10120AF
:100E3C0000F032F9FFF748FE0B4B1B68012BDFD19A
:100E4C00012000F03DF9FFF73FFED9E7AC00002090
:100E5C008C00002090000020940000203C0000201A
:100E6C0040000020980000209C00002080B590B02D
:100E7C0000AF07F1180328220021184601F020FDCD
:100E8C003B1D00221A605A609A60DA601A610223D4
:100E9C00BB610123BB621023FB6200237B6307F160
:100EAC001803184600F030FD0346002B01D000F06B
:100EBC00D9F80F237B600023BB600023FB60002369
:100ECC003B6100237B613B1D0021184600F09CFF19
:100EDC000346002B01D000F0C5F800BF4037BD46DB
:100EEC0080BD000080B586B000AF07F1080300227A
:100EFC001A605A609A60DA603B4600221A605A60A7
:100F0C001D4B4FF080421A601B4B41F63F725A60EA
:100F1C00194B00229A60184B0922DA60164B0022FA
:100F2C001A61154B00229A61134801F0C9F8034667
:100F3C00002B01D000F096F84FF48053BB6007F102
:100F4C00080319460C4801F047FA0346002B01D060
:100F5C0000F088F800233B6000237B603B46194679
:100F6C00054801F01FFC0346002B01D000F07AF875
:100F7C0000BF1837BD4680BDAC00002080B586B0E0
:100F8C0000AF07F1080300221A605A609A60DA6019
:100F9C00294B9B69284A43F004039361264B9B69B8
:100FAC0003F004037B607B68234B9B69224A43F06C
:100FBC0008039361204B9B6903F008033B603B687B
:100FCC0000224FF6FE711D4800F085FC002240F215
:100FDC00FF111B4800F07FFC4FF6FE73BB60012332
:100FEC00FB6000233B6102237B6107F10803194678
:100FFC00124800F0DFFA40F2FF13BB600123FB60E4
:10100C0000233B6102237B6107F1080319460C485E
:10101C0000F0D0FA4FF46063BB600023FB60012347
:10102C003B6107F108031946054800F0C3FA00BFFD
:10103C001837BD4680BD00BF0010024000080140BB
:10104C00000C014080B582B000AF786000F04CF825
:10105C00FFF79AF8FFF7E6F8FFF732F900BF083709
:10106C00BD4680BD80B400AF72B600BFFEE7000085
:10107C0080B483B000AF7860054A7B681360054B81
:10108C0000221A6000BF0C37BD4680BC704700BF01
:10109C00A00000209400002080B483B000AF7860E2
:1010AC00054A7B681360054B00221A6000BF0C37A1
:1010BC00BD4680BC704700BFA400002098000020F3
:1010CC0080B483B000AF7860054A7B681360054B31
:1010DC0000221A6000BF0C37BD4680BC704700BFB1
:1010EC00A80000209C00002080B400AF194B1B68A6
:1010FC00002B0BDD174B1B68013B164A1360154B7D
:10110C001B68002B02DC144B01221A60134B1B686A
:10111C00002B0BDD114B1B68013B104A13600F4B6E
:10112C001B68002B02DC0E4B01221A600D4B1B6856
:10113C00002B0BDD0B4B1B68013B0A4A1360094B60
:10114C001B68002B02DC084B01221A6000BFBD4655
:10115C0080BC7047A000002094000020A400002058
:10116C0098000020A80000209C00002080B485B0CE
:10117C0000AF154B9B69144A43F001039361124B6A
:10118C009B6903F00103BB60BB680F4BDB690E4A24
:10119C0043F08053D3610C4BDB6903F080537B60CD
:1011AC007B680A4B5B68FB60FB6823F0E063FB60C9
:1011BC00FB6843F08063FB60044AFB68536000BF2C
:1011CC001437BD4680BC704700100240000001403F
:1011DC0080B584B000AF78607B681B68B3F1804F3A
:1011EC0013D10C4BDB690B4A43F00103D361094B60
:1011FC00DB6903F00103FB60FB68002200211C206B
:10120C0000F0A1F91C2000F0BAF900BF1037BD4660
:10121C0080BD00BF0010024080B400AFFEE780B478
:10122C0000AFFEE780B400AFFEE780B400AFFEE78E
:10123C0080B400AFFEE780B400AF00BFBD4680BCF9
:10124C00704780B400AF00BFBD4680BC704780B40F
:10125C0000AF00BFBD4680BC704780B500AF00F04A
:10126C007FF800BF80BD000080B500AF024800F0E1
:10127C00C3FF00BF80BD00BFAC00002080B400AF36
:10128C0000BFBD4680BC7047FFF7F8FF0B480C4908
:10129C000C4A002302E0D458C4500433C4188C42C6
:1012AC00F9D3094A094C002301E013600432A2422D
:1012BC00FBD301F0E1FAFFF787FD70470000002037
:1012CC00500000202029000850000020F8000020C9
:1012DC00FEE7000080B500AF084B1B68074A43F0DF
:1012EC0010031360032000F023F90F2000F008F81E
:1012FC00FFF73CFF0023184680BD00BF00200240D2
:10130C0080B582B000AF7860124B1A68124B1B7814
:10131C0019464FF47A73B3FBF1F3B2FBF3F31846AF
:10132C0000F03BF90346002B01D001230EE07B6853
:10133C000F2B0AD8002279684FF0FF3000F003F928
:10134C00064A7B681360002300E001231846083727
:10135C00BD4680BD440000204C0000204800002009
:10136C0080B400AF054B1B781A46054B1B68134421
:10137C00034A136000BFBD4680BC70474C00002080
:10138C00F400002080B400AF024B1B681846BD4629
:10139C0080BC7047F400002080B485B000AF78604A
:1013AC007B6803F00703FB600C4BDB68BB60BA681F
:1013BC004FF6FF031340BB60FB681A02BB68134374
:1013CC0043F0BF6343F40033BB60044ABB68D36093
:1013DC0000BF1437BD4680BC704700BF00ED00E075
:1013EC0080B400AF044BDB681B0A03F007031846FC
:1013FC00BD4680BC704700BF00ED00E080B483B0F8
:10140C0000AF0346FB7197F90730002B0BDBFB7920
:10141C0003F01F02064997F907305B09012000FA17
:10142C0002F241F8232000BF0C37BD4680BC704748
:10143C0000E100E080B483B000AF03463960FB717B
:10144C0097F90730002B0ADB3B68DAB20C4997F9A5
:10145C0007301201D2B20B4483F800230AE03B6838
:10146C00DAB20849FB7903F00F03043B1201D2B244
:10147C000B441A7600BF0C37BD4680BC704700BFCA
:10148C0000E100E000ED00E080B489B000AFF8604E
:10149C00B9607A60FB6803F00703FB61FB69C3F179
:1014AC000703042B28BF0423BB61FB690433062B01
:1014BC0002D9FB69033B00E000237B614FF0FF3254
:1014CC00BB6902FA03F3DA43BB681A407B699A40A2
:1014DC004FF0FF317B6901FA03F3D9437B680B4072
:1014EC00134318462437BD4680BC704780B582B084
:1014FC0000AF78607B68013BB3F1807F01D301239F
:10150C000FE00A4A7B68013B53600F214FF0FF301C
:10151C00FFF790FF054B00229A60044B07221A60DC
:10152C00002318460837BD4680BD00BF10E000E020
:10153C0080B582B000AF78607868FFF72DFF00BFF0
:10154C000837BD4680BD80B586B000AF0346B96094
:10155C007A60FB7300237B61FFF742FF78617A6846
:10156C00B9687869FFF790FF024697F90F3011467A
:10157C001846FFF75FFF00BF1837BD4680BD80B52A
:10158C0082B000AF0346FB7197F907301846FFF79E
:10159C0035FF00BF0837BD4680BD80B582B000AFB7
:1015AC0078607868FFF7A2FF034618460837BD46F7
:1015BC0080BD000080B48BB000AF78603960002330
:1015CC007B6200233B6248E101227B6A02FA03F34F
:1015DC00FB613B681B68FA691340BB61BA69FB6924
:1015EC009A4240F037813B685B68A34A93425ED0D5
:1015FC00A14A934275D8A14A934258D09F4A93422C
:10160C006FD89F4A934252D09D4A934269D89D4AC3
:10161C0093424CD09B4A934263D89B4A934246D008
:10162C00994A93425DD8122B2AD8122B59D801A271
:10163C0052F823F0BB16000895160008A7160008F0
:10164C00E9160008EF160008EF160008EF16000860
:10165C00EF160008EF160008EF160008EF1600084A
:10166C00EF160008EF160008EF160008EF1600083A
:10167C00EF160008EF1600089D160008B1160008BA
:10168C00824A934213D02CE03B68DB683B6229E032
:10169C003B68DB6804333B6224E03B68DB6808335F
:1016AC003B621FE03B68DB680C333B621AE03B6833
:1016BC009B68002B02D104233B6213E03B689B68C0
:1016CC00012B05D108233B627B68FA691A6109E09A
:1016DC0008233B627B68FA695A6103E000233B6292
:1016EC0000E000BFBB69FF2B01D87B6801E07B6881
:1016FC0004337B61BB69FF2B02D87B6A9B0002E041
:10170C007B6A083B9B003B617B691A680F213B6934
:10171C0001FA03F3DB431A40396A3B6901FA03F31C
:10172C001A437B691A603B685B6803F08053002B9B
:10173C0000F09080564B9B69554A43F0010393612E
:10174C00534B9B6903F00103BB60BB68514A7B6A36
:10175C009B08023352F82330FB607B6A03F00303CF
:10176C009B000F2202FA03F3DB43FA681340FB6081
:10177C007B68494A93420DD07B68484A934207D014
:10178C007B68474A934201D1022304E0032302E021
:10179C00012300E000237A6A02F0030292009340D6
:1017AC00FA681343FB603B497B6A9B080233FA6877
:1017BC0041F823203B685B6803F48013002B06D0B0
:1017CC00384B9A683749BB6913438B6006E0354B3D
:1017DC009A68BB69DB43334913408B603B685B6899
:1017EC0003F40013002B06D02E4BDA682D49BB698D
:1017FC001343CB6006E02B4BDA68BB69DB4329490A
:10180C001340CB603B685B6803F40033002B06D0BD
:10181C00244B5A682349BB6913434B6006E0214BA8
:10182C005A68BB69DB431F4913404B603B685B68DC
:10183C0003F48033002B06D01A4B1A681949BB6984
:10184C0013430B6006E0174B1A68BB69DB43154961
:10185C0013400B607B6A01337B623B681A687B6ABE
:10186C0022FA03F3002B7FF4AFAE00BF00BF2C377E
:10187C00BD4680BC704700BF000032100000311024
:10188C0000002210000021100000121000001110A6
:10189C00001002400000014000080140000C014013
:1018AC00001001400004014080B485B000AF7860A6
:1018BC000B467B807B689A687B881340002B02D098
:1018CC000123FB7301E00023FB73FB7B18461437E9
:1018DC00BD4680BC704780B483B000AF78600B46C7
:1018EC007B8013467B707B78002B03D07A887B68D7
:1018FC001A6103E07B881A047B681A6100BF0C37FD
:10190C00BD4680BC7047000080B586B000AF7860E3
:10191C007B68002B01D101236CE27B681B6803F010
:10192C000103002B00F08780924B5B6803F00C03E3
:10193C00042B0CD08F4B5B6803F00C03082B12D1DB
:10194C008C4B5B6803F48033B3F5803F0BD1894B30
:10195C001B6803F40033002B6CD07B685B68002B96
:10196C0068D1012346E27B685B68B3F5803F06D102
:10197C00804B1B687F4A43F4803313602EE07B68F6
:10198C005B68002B0CD17B4B1B687A4A23F48033A9
:10199C001360784B1B68774A23F4802313601DE097
:1019AC007B685B68B3F5A02F0CD1724B1B68714A36
:1019BC0043F4802313606F4B1B686E4A43F48033EF
:1019CC0013600BE06B4B1B686A4A23F48033136083
:1019DC00684B1B68674A23F4802313607B685B6841
:1019EC00002B13D0FFF7CEFC386108E0FFF7CAFCE0
:1019FC0002463B69D31A642B01D90323FAE15D4BF0
:101A0C001B6803F40033002BF0D014E0FFF7BAFC92
:101A1C00386108E0FFF7B6FC02463B69D31A642B29
:101A2C0001D90323E6E1534B1B6803F40033002B6D
:101A3C00F0D100E000BF7B681B6803F00203002BB1
:101A4C0063D04C4B5B6803F00C03002B0BD0494B61
:101A5C005B6803F00C03082B1CD1464B5B6803F44A
:101A6C008033002B16D1434B1B6803F00203002B71
:101A7C0005D07B681B69012B01D00123BAE13D4BDA
:101A8C001B6823F0F8027B685B69DB003949134360
:101A9C000B603AE07B681B69002B20D0364B01228F
:101AAC001A60FFF76FFC386108E0FFF76BFC024629
:101ABC003B69D31A022B01D903239BE12D4B1B68E5
:101ACC0003F00203002BF0D02A4B1B6823F0F80222
:101ADC007B685B69DB00274913430B6015E0264BE1
:101AEC0000221A60FFF74EFC386108E0FFF74AFC51
:101AFC0002463B69D31A022B01D903237AE11D4B11
:101B0C001B6803F00203002BF0D17B681B6803F009
:101B1C000803002B3AD07B689B69002B19D0174B1C
:101B2C0001221A60FFF72EFC386108E0FFF72AFC4F
:101B3C0002463B69D31A022B01D903235AE10D4B00
:101B4C005B6A03F00203002BF0D0012000F09AFA3C
:101B5C001CE00A4B00221A60FFF714FC38610FE0FE
:101B6C00FFF710FC02463B69D31A022B08D903235A
:101B7C0040E100BF0010024000004242800442429B
:101B8C009E4B5B6A03F00203002BE9D17B681B6858
:101B9C0003F00403002B00F0A6800023FB75974B89
:101BAC00DB6903F08053002B0DD1944BDB69934A16
:101BBC0043F08053D361914BDB6903F08053BB60DE
:101BCC00BB680123FB758E4B1B6803F48073002BE1
:101BDC0018D18B4B1B688A4A43F480731360FFF750
:101BEC00D1FB386108E0FFF7CDFB02463B69D31A05
:101BFC00642B01D90323FDE0814B1B6803F4807334
:101C0C00002BF0D07B68DB68012B06D17B4B1B6A69
:101C1C007A4A43F0010313622DE07B68DB68002BEA
:101C2C000CD1764B1B6A754A23F001031362734B7C
:101C3C001B6A724A23F0040313621CE07B68DB68A6
:101C4C00052B0CD16D4B1B6A6C4A43F004031362D9
:101C5C006A4B1B6A694A43F0010313620BE0674B42
:101C6C001B6A664A23F001031362644B1B6A634AC6
:101C7C0023F0040313627B68DB68002B15D0FFF79D
:101C8C0081FB38610AE0FFF77DFB02463B69D31A02
:101C9C0041F28832934201D90323ABE0574B1B6AC4
:101CAC0003F00203002BEED014E0FFF76BFB38615E
:101CBC000AE0FFF767FB02463B69D31A41F2883210
:101CCC00934201D9032395E04C4B1B6A03F00203AA
:101CDC00002BEED1FB7D012B05D1484BDB69474A2C
:101CEC0023F08053D3617B68DB69002B00F081808B
:101CFC00424B5B6803F00C03082B61D07B68DB69FB
:101D0C00022B46D13F4B00221A60FFF73BFB386198
:101D1C0008E0FFF737FB02463B69D31A022B01D9C7
:101D2C00032367E0354B1B6803F00073002BF0D1E5
:101D3C007B681B6AB3F5803F08D1304B5B6823F49A
:101D4C0000327B689B682D4913434B602B4B5B68BF
:101D5C0023F474127B68196A7B685B6A0B4327490E
:101D6C0013434B60274B01221A60FFF70BFB3861C2
:101D7C0008E0FFF707FB02463B69D31A022B01D997
:101D8C00032337E01D4B1B6803F00073002BF0D0CE
:101D9C002FE01C4B00221A60FFF7F4FA386108E0C0
:101DAC00FFF7F0FA02463B69D31A022B01D9032341
:101DBC0020E0124B1B6803F00073002BF0D118E0ED
:101DCC007B68DB69012B01D1012313E00B4B5B68B2
:101DDC00FB60FB6803F480327B681B6A9A4206D175
:101DEC00FB6803F470127B685B6A9A4201D0012392
:101DFC0000E0002318461837BD4680BD0010024095
:101E0C00007000406000424280B584B000AF786042
:101E1C0039607B68002B01D10123D0E06A4B1B6831
:101E2C0003F007033A689A4210D9674B1B6823F0FA
:101E3C00070265493B6813430B60634B1B6803F057
:101E4C0007033A689A4201D00123B8E07B681B680B
:101E5C0003F00203002B20D07B681B6803F0040303
:101E6C00002B05D0594B5B68584A43F4E063536030
:101E7C007B681B6803F00803002B05D0534B5B6891
:101E8C00524A43F460535360504B5B6823F0F002AA
:101E9C007B689B684D4913434B607B681B6803F060
:101EAC000103002B40D07B685B68012B07D1474BAB
:101EBC001B6803F40033002B15D101237FE07B68F2
:101ECC005B68022B07D1414B1B6803F00073002B9E
:101EDC0009D1012373E03D4B1B6803F00203002B77
:101EEC0001D101236BE0394B5B6823F003027B6863
:101EFC005B68364913434B60FFF744FAF8600AE01D
:101F0C00FFF740FA0246FB68D31A41F2883293423B
:101F1C0001D9032353E02D4B5B6803F00C027B6863
:101F2C005B689B009A42EBD1274B1B6803F00703BD
:101F3C003A689A4210D2244B1B6823F007022249BC
:101F4C003B6813430B60204B1B6803F007033A6894
:101F5C009A4201D0012332E07B681B6803F0040332
:101F6C00002B08D0194B5B6823F4E0627B68DB68BC
:101F7C00164913434B607B681B6803F00803002B66
:101F8C0009D0124B5B6823F460527B681B69DB0041
:101F9C000E4913434B6000F021F802460B4B5B6873
:101FAC001B0903F00F030A49CB5C22FA03F3094A1D
:101FBC001360094B1B681846FFF7A2F9002318465B
:101FCC001037BD4680BD00BF00200240001002400B
:101FDC00F4280008440000204800002080B487B09A
:101FEC0000AF0023FB600023BB6000237B61002358
:101FFC007B6000233B611E4B5B68FB60FB6803F05E
:10200C000C03042B02D0082B03D027E0194B3B61A7
:10201C0027E0FB689B0C03F00F03174AD35C7B6033
:10202C00FB6803F48033002B10D0114B5B685B0C06
:10203C0003F00103114AD35CBB607B680D4A02FBC1
:10204C0003F2BB68B2FBF3F37B6104E07B680C4AE0
:10205C0002FB03F37B617B693B6102E0054B3B6157
:10206C0000BF3B6918461C37BD4680BC704700BF9B
:10207C000010024000127A000429000814290008FC
:10208C0000093D0080B485B000AF78600A4B1B6836
:10209C000A4AA2FB03235B0A7A6802FB03F3FB6088
:1020AC0000BFFB685A1EFA60002BF9D100BF00BFBD
:1020BC001437BD4680BC704744000020D34D6210DD
:1020CC0080B582B000AF78607B68002B01D1012312
:1020DC0041E07B6893F83D30DBB2002B06D17B6886
:1020EC00002283F83C207868FFF772F87B680222A4
:1020FC0083F83D207B681A687B68043319461046C8
:10210C0000F056FA7B68012283F846207B68012296
:10211C0083F83E207B68012283F83F207B680122F4
:10212C0083F840207B68012283F841207B680122E0
:10213C0083F842207B68012283F843207B680122CC
:10214C0083F844207B68012283F845207B680122B8
:10215C0083F83D20002318460837BD4680BD00009B
:10216C0080B485B000AF78607B6893F83D30DBB20B
:10217C00012B01D0012335E07B68022283F83D203E
:10218C007B681B68DA687B681B6842F00102DA60C6
:10219C007B681B68164A934209D07B681B68B3F1B5
:1021AC00804F04D07B681B68124A934211D17B6824
:1021BC001B689B6803F00703FB60FB68062B10D0C1
:1021CC007B681B681A687B681B6842F001021A6006
:1021DC0007E07B681B681A687B681B6842F0010289
:1021EC001A60002318461437BD4680BC704700BFE8
:1021FC00002C01400004004080B584B000AF786032
:10220C007B681B68DB68FB607B681B681B69BB60B9
:10221C00BB6803F00203002B20D0FB6803F0020321
:10222C00002B1BD07B681B686FF002021A617B6865
:10223C0001221A777B681B689B6903F00303002B50
:10224C0003D0786800F098F905E0786800F08BF915
:10225C00786800F09AF97B6800221A77BB6803F063
:10226C000403002B20D0FB6803F00403002B1BD0CD
:10227C007B681B686FF004021A617B6802221A7774
:10228C007B681B689B6903F44073002B03D0786850
:10229C0000F072F905E0786800F065F9786800F0F4
:1022AC0074F97B6800221A77BB6803F00803002BD3
:1022BC0020D0FB6803F00803002B1BD07B681B6845
:1022CC006FF008021A617B6804221A777B681B681E
:1022DC00DB6903F00303002B03D0786800F04CF9A2
:1022EC0005E0786800F03FF9786800F04EF97B68FB
:1022FC0000221A77BB6803F01003002B20D0FB6878
:10230C0003F01003002B1BD07B681B686FF01002CE
:10231C001A617B6808221A777B681B68DB6903F4F7
:10232C004073002B03D0786800F026F905E078683C
:10233C0000F019F9786800F028F97B6800221A7708
:10234C00BB6803F00103002B0CD0FB6803F0010306
:10235C00002B07D07B681B686FF001021A6178684C
:10236C00FEF770FEBB6803F08003002B0CD0FB68FB
:10237C0003F08003002B07D07B681B686FF0800292
:10238C001A61786800F06FFABB6803F04003002B09
:10239C000CD0FB6803F04003002B07D07B681B6854
:1023AC006FF040021A61786800F0F8F8BB6803F02F
:1023BC002003002B0CD0FB6803F02003002B07D06C
:1023CC007B681B686FF020021A61786800F042FA93
:1023DC0000BF1037BD4680BD80B584B000AF7860BB
:1023EC0039600023FB737B6893F83C30012B01D1DF
:1023FC000223B4E07B68012283F83C207B68022234
:10240C0083F83D207B681B689B68BB60BB6823F02E
:10241C007703BB60BB6823F47F43BB607B681B689E
:10242C00BA689A603B681B68B3F5005F3ED0B3F5A1
:10243C00005F00F28780B3F5805F00F08680B3F513
:10244C00805F7FD8702B1AD0702B7BD8602B50D02C
:10245C00602B77D8502B3CD0502B73D8402B58D0B6
:10246C00402B6FD8302B64D0302B6BD8202B60D006
:10247C00202B67D8002B5CD0102B5AD062E07B68E5
:10248C0018683B6899683B685A683B68DB6800F0E1
:10249C006AF97B681B689B68BB60BB6843F0770379
:1024AC00BB607B681B68BA689A604FE07B681868F1
:1024BC003B6899683B685A683B68DB6800F053F9E5
:1024CC007B681B689A687B681B6842F480429A6040
:1024DC003CE07B6818683B6859683B68DB681A46C7
:1024EC0000F0CAF87B681B685021184600F021F9EF
:1024FC002CE07B6818683B6859683B68DB681A46B7
:10250C0000F0E8F87B681B686021184600F011F9B0
:10251C001CE07B6818683B6859683B68DB681A46A6
:10252C0000F0AAF87B681B684021184600F001F9FE
:10253C000CE07B681A683B681B681946104600F073
:10254C00F8F803E00123FB7300E000BF7B68012275
:10255C0083F83D207B68002283F83C20FB7B1846E7
:10256C001037BD4680BD80B483B000AF786000BF2B
:10257C000C37BD4680BC704780B483B000AF786028
:10258C0000BF0C37BD4680BC704780B483B000AF31
:10259C00786000BF0C37BD4680BC704780B483B0F8
:1025AC0000AF786000BF0C37BD4680BC70470000A0
:1025BC0080B485B000AF786039607B681B68FB60C5
:1025CC007B682B4A934207D07B68B3F1804F03D0D2
:1025DC007B68284A934208D1FB6823F07003FB60A8
:1025EC003B685B68FA681343FB607B68204A934244
:1025FC0007D07B68B3F1804F03D07B681D4A9342B0
:10260C0008D1FB6823F44073FB603B68DB68FA6815
:10261C001343FB60FB6823F080023B685B69134348
:10262C00FB607B68FA681A603B689A687B68DA62C0
:10263C003B681A687B689A627B680D4A934203D1A7
:10264C003B681A697B681A637B6801225A617B6854
:10265C001B6903F00103002B05D07B681B6923F079
:10266C0001027B681A6100BF1437BD4680BC7047FD
:10267C00002C01400004004080B487B000AFF8602B
:10268C00B9607A60FB681B6A7B61FB681B6A23F08C
:10269C000102FB681A62FB689B693B613B6923F092
:1026AC00F0033B617B681B013A6913433B617B6917
:1026BC0023F00A037B617A69BB6813437B61FB6877
:1026CC003A699A61FB687A691A6200BF1C37BD4689
:1026DC0080BC704780B487B000AFF860B9607A6096
:1026EC00FB681B6A7B61FB681B6A23F01002FB68AA
:1026FC001A62FB689B693B613B6923F470433B6145
:10270C007B681B033A6913433B617B6923F0A0038D
:10271C007B61BB681B017A6913437B61FB683A6977
:10272C009A61FB687A691A6200BF1C37BD4680BC8F
:10273C00704780B485B000AF786039607B689B6867
:10274C00FB60FB6823F07003FB603A68FB68134383
:10275C0043F00703FB607B68FA689A6000BF14378C
:10276C00BD4680BC704780B487B000AFF860B960DC
:10277C007A603B60FB689B687B617B6923F47F43D9
:10278C007B613B681A027B681A43BB6813437A6906
:10279C0013437B61FB687A699A6000BF1C37BD46A6
:1027AC0080BC704780B485B000AF786039607B68BE
:1027BC0093F83C30012B01D1022341E07B680122CC
:1027CC0083F83C207B68022283F83D207B681B68E1
:1027DC005B68FB607B681B689B68BB60FB6823F0D5
:1027EC007003FB603B681B68FA681343FB607B68F3
:1027FC001B68FA685A607B681B68144A934209D0BC
:10280C007B681B68B3F1804F04D07B681B68104A4F
:10281C0093420CD1BB6823F08003BB603B685B68C0
:10282C00BA681343BB607B681B68BA689A607B68A4
:10283C00012283F83D207B68002283F83C20002392
:10284C0018461437BD4680BC704700BF002C0140B1
:10285C000004004080B483B000AF786000BF0C3738
:10286C00BD4680BC704780B483B000AF786000BFB9
:10287C000C37BD4680BC704770B500260C4D0D4C16
:10288C00641BA410A64209D100F022F800260A4DC0
:10289C000A4C641BA410A64205D170BD55F8043B2C
:1028AC0098470136EEE755F8043B98470136F2E7B6
:1028BC001829000818290008182900081C290008E4
:1028CC0003460244934200D1704703F8011BF9E719
:1028DC00F8B500BFF8BC08BC9E467047F8B500BF01
:0828EC00F8BC08BC9E467047D1
:1028F40000000000000000000102030406070809AC
:1029040002030405060708090A0B0C0D0E0F10102C
:0429140001020000BC
:042918003101000881
:04291C000D010008A1
:1029200001000000010000000100000001000000A3
:102930000100000001000000010000000100000093
:102940000100000001000000010000000100000083
:10295000C8000000C8000000C8000000040000001B
:102960000200000000127A001000000001000000C8
:040000050800129548
:00000001FF
