:020000040800F2
:100000000028002029140008B9130008BF130008B5
:10001000C5130008CB130008D1130008000000002E
:10002000000000000000000000000000D7130008DE
:10003000E313000800000000EF130008FB130008A2
:10004000711400087114000871140008711400087C
:10005000711400087114000871140008711400086C
:10006000711400087114000871140008711400085C
:10007000711400087114000871140008711400084C
:10008000711400087114000871140008711400083C
:10009000711400087114000871140008711400082C
:1000A000711400087114000871140008711400081C
:1000B0000914000871140008000000007114000801
:1000C0007114000800000000000000007114000816
:1000D0000000000071140008711400080000000006
:1000E0007114000871140008711400080000000069
:1000F0000000000000000000000000000000000000
:0C01000000000000000000005FF808F1A3
:10010C0010B5054C237833B9044B13B10448AFF345
:10011C0000800123237010BD54000020000000005B
:10012C00702A000808B5034B1BB103490348AFF311
:10013C00008008BD0000000058000020702A000854
:10014C0080B400AF034B01221A6000BFBD4680BCD7
:10015C00704700BF7000002080B400AF034B012239
:10016C001A6000BFBD4680BC704700BF7400002001
:10017C0080B400AF034B01221A6000BFBD4680BCA7
:10018C00704700BF7800002080B500AF1F4B1B6884
:10019C001F4A13601F4B1B681C4A13604FF40071FD
:1001AC001D4801F04BFC03461A461A4B1A60184BBB
:1001BC001A68164B1B689A4225D1144B1A68154BBA
:1001CC001B689A421FD1154B1A68124B1B689A4236
:1001DC000DD0104B1B68114A13600E4B1B68002B83
:1001EC0011D1FFF7ADFF0E4BC8221A600BE00C4B80
:1001FC001B68013B0A4A1360094B1B68002B02D198
:10020C00064B01221A6000BF80BD00BF0400002015
:10021C000000002008000020000C01400C00002011
:10022C003000002080B500AF1F4B1B681F4A1360C5
:10023C001F4B1B681C4A13604FF480611D4801F072
:10024C00FDFB03461A461A4B1A60184B1A68164BDC
:10025C001B689A4225D1144B1A68154B1B689A429D
:10026C001FD1154B1A68124B1B689A420DD0104BBC
:10027C001B68114A13600E4B1B68002B11D1FFF742
:10028C006BFF0E4BC8221A600BE00C4B1B68013B3A
:10029C000A4A1360094B1B68002B02D1064B012242
:1002AC001A6000BF80BD00BF1400002010000020A9
:1002BC0018000020000C01401C000020340000201D
:1002CC0080B500AF1F4B1B681F4A13601F4B1B6888
:1002DC001C4A13604FF400611D4801F0AFFB03464C
:1002EC001A461A4B1A60184B1A68164B1B689A421E
:1002FC0025D1144B1A68154B1B689A421FD1154B0C
:10030C001A68124B1B689A420DD0104B1B68114A8D
:10031C0013600E4B1B68002B11D1FFF729FF0E4BFE
:10032C00C8221A600BE00C4B1B68013B0A4A136095
:10033C00094B1B68002B02D1064B01221A6000BF2F
:10034C0080BD00BF240000202000002028000020D9
:10035C00000C01402C0000203800002080B582B039
:10036C0000AF78607B68092B00F2BC8101A252F8C7
:10037C0023F000BFA9030008FD0300085104000886
:10038C00A5040008F90400084D050008A1050008A3
:10039C00F5050008490600089D060008002280218A
:1003AC00D34801F062FB00224FF48071D04801F079
:1003BC005CFB00224FF40071CD4801F056FB00228B
:1003CC004FF48061CA4801F050FB00224FF40061E9
:1003DC00C74801F04AFB00224FF48051C44801F099
:1003EC0044FB01224FF40051C14801F03EFB7AE17D
:1003FC0001228021BE4801F038FB00224FF48071AD
:10040C00BB4801F032FB00224FF40071B84801F0F8
:10041C002CFB01224FF48061B54801F026FB012230
:10042C004FF40061B24801F020FB01224FF48051DF
:10043C00AF4801F01AFB01224FF40051AC4801F017
:10044C0014FB50E100228021A94801F00EFB002290
:10045C004FF48071A64801F008FB01224FF40071A3
:10046C00A34801F002FB00224FF48061A04801F088
:10047C00FCFA00224FF400619D4801F0F6FA0122CB
:10048C004FF480519A4801F0F0FA00224FF40051D9
:10049C00974801F0EAFA26E100228021944801F005
:1004AC00E4FA00224FF48071914801F0DEFA002248
:1004BC004FF400718E4801F0D8FA00224FF480619D
:1004CC008B4801F0D2FA01224FF40061884801F008
:1004DC00CCFA01224FF48051854801F0C6FA002273
:1004EC004FF40051824801F0C0FAFCE00122802157
:1004FC007F4801F0BAFA00224FF480717C4801F079
:10050C00B4FA00224FF40071794801F0AEFA0122DE
:10051C004FF48061764801F0A8FA01224FF4006193
:10052C00734801F0A2FA00224FF48051704801F098
:10053C009CFA00224FF400516D4801F096FAD2E07B
:10054C00002280216A4801F090FA01224FF4807158
:10055C00674801F08AFA00224FF40071644801F0F8
:10056C0084FA00224FF48061614801F07EFA012286
:10057C004FF400615E4801F078FA00224FF480518C
:10058C005B4801F072FA00224FF40051584801F018
:10059C006CFAA8E000228021554801F066FA01228D
:1005AC004FF48071524801F060FA00224FF4007150
:1005BC004F4801F05AFA00224FF480614C4801F088
:1005CC0054FA00224FF40061494801F04EFA00221F
:1005DC004FF48051464801F048FA00224FF4005184
:1005EC00434801F042FA7EE000228021404801F0AD
:1005FC003CFA00224FF480713D4801F036FA00229B
:10060C004FF400713A4801F030FA01224FF4806146
:10061C00374801F02AFA01224FF40061344801F006
:10062C0024FA01224FF48051314801F01EFA0122C4
:10063C004FF400512E4801F018FA54E000228021AA
:10064C002B4801F012FA00224FF48071284801F077
:10065C000CFA00224FF40071254801F006FA002232
:10066C004FF48061224801F000FA00224FF400613F
:10067C001F4801F0FAF900224FF480511C4801F098
:10068C00F4F900224FF40051194801F0EEF92AE078
:10069C0000228021164801F0E8F900224FF4807105
:1006AC00134801F0E2F900224FF40071104801F0F8
:1006BC00DCF900224FF480610D4801F0D6F90122DB
:1006CC004FF400610A4801F0D0F900224FF4805138
:1006DC00074801F0CAF900224FF40051044801F018
:1006EC00C4F900E000BF00BF0837BD4680BD00BFA5
:1006FC000008014080B582B000AF78607B68092BA0
:10070C0000F2808101A252F823F000BF41070008DB
:10071C0089070008D10700081908000861080008BB
:10072C00A9080008F1080008390900088109000827
:10073C00C909000800220121B54801F096F90022F0
:10074C000221B34801F091F900220421B04801F0D4
:10075C008CF900220821AE4801F087F90022102103
:10076C00AB4801F082F900222021A94801F07DF963
:10077C0001224021A64801F078F944E1012201212F
:10078C00A34801F072F900220221A14801F06DF991
:10079C00002204219E4801F068F9012208219C489E
:1007AC0001F063F901221021994801F05EF9012250
:1007BC002021974801F059F901224021944801F079
:1007CC0054F920E100220121914801F04EF9002258
:1007DC0002218F4801F049F9012204218C4801F0D3
:1007EC0044F9002208218A4801F03FF90022102127
:1007FC00874801F03AF901222021854801F035F9AA
:10080C0000224021824801F030F9FCE00022012155
:10081C007F4801F02AF9002202217D4801F025F9D8
:10082C00002204217A4801F020F90022082178489E
:10083C0001F01BF901221021754801F016F9012273
:10084C002021734801F011F900224021704801F079
:10085C000CF9D8E0012201216D4801F006F90022C3
:10086C0002216B4801F001F900220421684801F0D3
:10087C00FCF801220821664801F0F7F8012210214A
:10088C00634801F0F2F800222021614801F0EDF8F4
:10089C00002240215E4801F0E8F8B4E0002201217A
:1008AC005B4801F0E2F801220221594801F0DDF821
:1008BC0000220421564801F0D8F80022082154489F
:1008CC0001F0D3F801221021514801F0CEF800229A
:1008DC0020214F4801F0C9F8002240214C4801F07A
:1008EC00C4F890E000220121494801F0BEF8012231
:1008FC000221474801F0B9F800220421444801F0D4
:10090C00B4F800220821424801F0AFF8002210216F
:10091C003F4801F0AAF8002220213D4801F0A5F83B
:10092C00002240213A4801F0A0F86CE0002201219D
:10093C00374801F09AF800220221354801F095F869
:10094C0000220421324801F090F80122082130489D
:10095C0001F08BF8012210212D4801F086F80122BC
:10096C0020212B4801F081F801224021284801F078
:10097C007CF848E000220121254801F076F800229D
:10098C000221234801F071F800220421204801F0D3
:10099C006CF8002208211E4801F067F80022102193
:1009AC001B4801F062F800222021194801F05DF883
:1009BC0000224021164801F058F824E000220121C1
:1009CC00134801F052F800220221114801F04DF8B1
:1009DC00002204210E4801F048F8002208210C489E
:1009EC0001F043F801221021094801F03EF80022E1
:1009FC002021074801F039F800224021044801F079
:100A0C0034F800E000BF00BF0837BD4680BD00BF12
:100A1C00000C014080B582B000AF78607B68002B81
:100A2C0003D07B68012B22D043E000224FF480419D
:100A3C00224801F01AF801224FF400411F4801F03E
:100A4C0014F8002280211E4801F00FF801224FF407
:100A5C0080511B4801F009F81A4B1B681846FFF728
:100A6C0049FE194B1B681846FFF778FC21E0012260
:100A7C004FF48041114800F0F8FF00224FF4004180
:100A8C000E4800F0F2FF012280210D4800F0EDFF2E
:100A9C0000224FF480510A4800F0E7FF094B5B68D5
:100AAC001846FFF727FE084B5B681846FFF756FC05
:100ABC0000BF00BF0837BD4680BD00BF0008014025
:100ACC00000C0140880000208000002080B582B01E
:100ADC0000AF786039607B68092B05DC2E4B002257
:100AEC001A602D4A7B6853607B68092B16DD7B6886
:100AFC002A4A82FB03129210DB17D31A264A136080
:100B0C007968264B83FB01239A10CB17D21A134614
:100B1C009B0013445B00CA1A1F4B5A603B68092B9D
:100B2C0005DC1F4B00221A601D4A3B6853603B6872
:100B3C00092B16DD3B68194A82FB03129210DB1756
:100B4C00D31A174A13603968144B83FB01239A108C
:100B5C00CB17D21A13469B0013445B00CA1A104BD6
:100B6C005A60104B1B68012B11D10F4B1B685A1C80
:100B7C000D490A601846FFF74DFF0B4B1B68012B04
:100B8C0002DD094B00221A60192000F0EBFA00BFBD
:100B9C000837BD4680BD00BF8000002067666666D2
:100BAC0088000020A00000207C00002080B500AF51
:100BBC00094B1B68012B0CD1084B1B68013B074AE6
:100BCC001360074B1B68013B054A1360642000F05F
:100BDC0005FB00BF80BD00BFAC00002090000020D2
:100BEC009400002080B500AF514B1B68013B032BD8
:100BFC0000F2948001A252F823F000BF190C0008F7
:100C0C00570C00089D0C0008E30C0008012202217F
:100C1C00484800F02AFF01220421464800F025FF35
:100C2C0001220821434800F020FF414B02221A60A8
:100C3C00414B1B68414A13603F4B1B68642202FB0B
:100C4C0003F3184600F0A2FA6FE0002202213948A3
:100C5C0000F00BFF01220421364800F006FF0122B0
:100C6C000821344800F001FF354B1B68012B57D18C
:100C7C002F4B04221A60334B1B68304A1360314BE4
:100C8C001B68642202FB03F3184600F07FFA47E06E
:100C9C0001220221274800F0E8FE00220421254809
:100CAC0000F0E3FE01220821224800F0DEFE244B76
:100CBC001B68012B36D11E4B02221A601E4B1B687F
:100CCC001E4A13601C4B1B68642202FB03F318467C
:100CDC0000F05CFA26E001220221164800F0C5FE65
:100CEC0001220421134800F0C0FE00220821114803
:100CFC0000F0BBFE124B1B68012B15D10C4B0322D1
:100D0C001A60114B1B680D4A13600F4B1B68642251
:100D1C0002FB03F3184600F039FA05E000BF04E0CB
:100D2C0000BF02E000BF00E000BF00BF80BD00BFFD
:100D3C0098000020000801403C000020900000209A
:100D4C00A4000020440000204000002080B500AF2B
:100D5C00544B1B68013B062B00F29A8001A252F8FF
:100D6C0023F000BF8D0D00089D0E00089D0E00089D
:100D7C009D0E0008CB0D0008110E0008570E000840
:100D8C0001221021484800F070FE01222021464823
:100D9C0000F06BFE01224021434800F066FE414BFF
:100DAC0007221A60414B1B68414A13603F4B1B687A
:100DBC00642202FB03F3184600F0FCF96FE00022FA
:100DCC001021394800F051FE01222021364800F054
:100DDC004CFE01224021344800F047FE354B1B6885
:100DEC00012B57D12F4B07221A60304B1B68304A0E
:100DFC0013602E4B1B68642202FB03F3184600F0B1
:100E0C00D9F947E001221021274800F02EFE0022DC
:100E1C002021254800F029FE01224021224800F023
:100E2C0024FE244B1B68012B36D11E4B05221A6065
:100E3C00214B1B681E4A13601F4B1B68642202FB6C
:100E4C0003F3184600F0B6F926E0012210211648EB
:100E5C0000F00BFE01222021134800F006FE0022B8
:100E6C004021114800F001FE124B1B68012B15D1DB
:100E7C000C4B06221A60114B1B680D4A13600F4B6A
:100E8C001B68642202FB03F3184600F093F905E09B
:100E9C0000BF04E000BF02E000BF00E000BF00BFE5
:100EAC0080BD00BF9C0000200008014044000020D1
:100EBC0094000020A80000203C00002040000020EE
:100ECC0080B500AF00F0D0FA00F034F800F0BAF8BA
:100EDC0000F06CF80E4801F00DFA0E4B01221A606E
:100EEC000D4B01221A600D4B01221A600C4B012292
:100EFC001A600C4B01221A600B4B01221A600B4B2F
:100F0C0001221A600A4B01221A6000F015F9FCE765
:100F1C00D0000020980000209C000020A0000020A1
:100F2C00A4000020A8000020AC000020B00000208D
:100F3C00B400002080B590B000AF07F11803282250
:100F4C000021184601F086FD3B1D00221A605A60F4
:100F5C009A60DA601A610223BB610123BB62102321
:100F6C00FB6200237B6307F11803184600F096FD23
:100F7C000346002B01D000F0D9F80F237B6000232F
:100F8C00BB600023FB6000233B6100237B613B1DA6
:100F9C000021184601F002F80346002B01D000F0A6
:100FAC00C5F800BF4037BD4680BD000080B586B097
:100FBC0000AF07F1080300221A605A609A60DA60E9
:100FCC003B4600221A605A601D4B4FF080421A605B
:100FDC001B4B41F63F725A60194B00229A60184B1A
:100FEC000922DA60164B00221A61154B00229A6115
:100FFC00134801F02FF90346002B01D000F096F8AE
:10100C004FF48053BB6007F1080319460C4801F0FC
:10101C00ADFA0346002B01D000F088F800233B60AA
:10102C0000237B603B461946054801F085FC0346CE
:10103C00002B01D000F07AF800BF1837BD4680BDF8
:10104C00D000002080B586B000AF07F10803002265
:10105C001A605A609A60DA60294B9B69284A43F0FF
:10106C0004039361264B9B6903F004037B607B684C
:10107C00234B9B69224A43F008039361204B9B69E5
:10108C0003F008033B603B6800224FF6FE711D48DD
:10109C0000F0EBFC002241F2FF011B4800F0E5FCE4
:1010AC004FF6FE73BB600123FB6000233B61022300
:1010BC007B6107F108031946124800F045FB41F229
:1010CC00FF03BB600123FB6000233B6102237B61B8
:1010DC0007F1080319460C4800F036FB4FF4606327
:1010EC00BB600023FB6001233B6107F10803194639
:1010FC00054800F029FB00BF1837BD4680BD00BF76
:10110C000010024000080140000C014080B582B084
:10111C0000AF786000F076F8FFF736F8FFF782F84A
:10112C00FFF7CEF800BF0837BD4680BD80B400AFD6
:10113C0072B600BFFEE7000080B500AFFFF752FDAE
:10114C00FFF704FE054B1B68054A1268114618464A
:10115C00FFF7BCFCFFF72AFD00BF80BD900000200C
:10116C009400002080B483B000AF7860054A7B689F
:10117C001360054B00221A6000BF0C37BD4680BCC3
:10118C00704700BFB8000020A000002080B483B0DE
:10119C0000AF7860054A7B681360054B00221A602B
:1011AC0000BF0C37BD4680BC704700BFBC000020A0
:1011BC00A400002080B483B000AF7860054A7B683F
:1011CC001360054B00221A6000BF0C37BD4680BC73
:1011DC00704700BFC0000020A800002080B483B07E
:1011EC0000AF7860054A7B681360054B00221A60DB
:1011FC0000BF0C37BD4680BC704700BFC400002048
:10120C00AC00002080B400AF314B1B68002B0BDD11
:10121C002F4B1B68013B2E4A13602D4B1B68002B78
:10122C0002DC2C4B01221A602B4B1B68002B0BDDB4
:10123C00294B1B68013B284A1360274B1B68002B6A
:10124C0002DC264B01221A60254B1B68002B0BDDA0
:10125C00234B1B68013B224A1360214B1B68002B5C
:10126C0002DC204B01221A601F4B1B68002B0BDD8C
:10127C001D4B1B68013B1C4A13601B4B1B68002B4E
:10128C0002DC1A4B01221A60194B1B68002B0BDD78
:10129C00174B1B68013B164A1360154B1B68002B40
:1012AC0002DC144B01221A60134B1B68002B0BDD64
:1012BC00114B1B68013B104A13600F4B1B68002B32
:1012CC0002DC0E4B01221A6000BFBD4680BC704789
:1012DC00B8000020A0000020BC000020A4000020CA
:1012EC00C0000020A8000020C4000020AC0000209A
:1012FC00C8000020B0000020CC000020B40000206A
:10130C0080B485B000AF154B9B69144A43F00103C0
:10131C009361124B9B6903F00103BB60BB680F4BDD
:10132C00DB690E4A43F08053D3610C4BDB6903F04D
:10133C0080537B607B680A4B5B68FB60FB6823F027
:10134C00E063FB60FB6843F08063FB60044AFB686E
:10135C00536000BF1437BD4680BC7047001002407C
:10136C000000014080B584B000AF78607B681B68DA
:10137C00B3F1804F13D10C4BDB690B4A43F00103E3
:10138C00D361094BDB6903F00103FB60FB680022AE
:10139C0000211C2000F0A1F91C2000F0BAF900BFBC
:1013AC001037BD4680BD00BF0010024080B400AFB6
:1013BC00FEE780B400AFFEE780B400AFFEE780B478
:1013CC0000AFFEE780B400AFFEE780B400AF00BF13
:1013DC00BD4680BC704780B400AF00BFBD4680BC2A
:1013EC00704780B400AF00BFBD4680BC704780B56D
:1013FC0000AF00F07FF800BF80BD000080B500AFEB
:10140C00024800F0C3FF00BF80BD00BFD000002029
:10141C0080B400AF00BFBD4680BC7047FFF7F8FF3B
:10142C000B480C490C4A002302E0D458C450043336
:10143C00C4188C42F9D3094A094C002301E013600B
:10144C000432A242FBD301F0E1FAFFF739FD7047F9
:10145C000000002054000020B42A00085400002092
:10146C001C010020FEE7000080B500AF084B1B6894
:10147C00074A43F010031360032000F023F90F20F8
:10148C0000F008F8FFF73CFF0023184680BD00BFB2
:10149C000020024080B582B000AF7860124B1A6811
:1014AC00124B1B7819464FF47A73B3FBF1F3B2FB72
:1014BC00F3F3184600F03BF90346002B01D001234F
:1014CC000EE07B680F2B0AD8002279684FF0FF30B2
:1014DC0000F003F9064A7B681360002300E0012347
:1014EC0018460837BD4680BD48000020500000203B
:1014FC004C00002080B400AF054B1B781A46054BFE
:10150C001B681344034A136000BFBD4680BC704780
:10151C00500000201801002080B400AF024B1B6863
:10152C001846BD4680BC70471801002080B485B0B9
:10153C0000AF78607B6803F00703FB600C4BDB6843
:10154C00BB60BA684FF6FF031340BB60FB681A021E
:10155C00BB68134343F0BF6343F40033BB60044ADE
:10156C00BB68D36000BF1437BD4680BC704700BF5A
:10157C0000ED00E080B400AF044BDB681B0A03F005
:10158C0007031846BD4680BC704700BF00ED00E065
:10159C0080B483B000AF0346FB7197F90730002B82
:1015AC000BDBFB7903F01F02064997F907305B0947
:1015BC00012000FA02F241F8232000BF0C37BD468F
:1015CC0080BC704700E100E080B483B000AF0346FC
:1015DC003960FB7197F90730002B0ADB3B68DAB2F4
:1015EC000C4997F907301201D2B20B4483F800234F
:1015FC000AE03B68DAB20849FB7903F00F03043BBD
:10160C001201D2B20B441A7600BF0C37BD4680BC17
:10161C00704700BF00E100E000ED00E080B489B04D
:10162C0000AFF860B9607A60FB6803F00703FB61F8
:10163C00FB69C3F10703042B28BF0423BB61FB69BF
:10164C000433062B02D9FB69033B00E000237B61CA
:10165C004FF0FF32BB6902FA03F3DA43BB681A405E
:10166C007B699A404FF0FF317B6901FA03F3D94350
:10167C007B680B40134318462437BD4680BC70472B
:10168C0080B582B000AF78607B68013BB3F1807F9E
:10169C0001D301230FE00A4A7B68013B53600F2101
:1016AC004FF0FF30FFF790FF054B00229A60044B80
:1016BC0007221A60002318460837BD4680BD00BFBC
:1016CC0010E000E080B582B000AF78607868FFF77A
:1016DC002DFF00BF0837BD4680BD80B586B000AF7A
:1016EC000346B9607A60FB7300237B61FFF742FF0E
:1016FC0078617A68B9687869FFF790FF024697F9C4
:10170C000F3011461846FFF75FFF00BF1837BD4674
:10171C0080BD80B582B000AF0346FB7197F90730EE
:10172C001846FFF735FF00BF0837BD4680BD80B5B2
:10173C0082B000AF78607868FFF7A2FF03461846C6
:10174C000837BD4680BD000080B48BB000AF786018
:10175C00396000237B6200233B6248E101227B6AF3
:10176C0002FA03F3FB613B681B68FA691340BB6127
:10177C00BA69FB699A4240F037813B685B68A34ABF
:10178C0093425ED0A14A934275D8A14A934258D055
:10179C009F4A93426FD89F4A934252D09D4A93429C
:1017AC0069D89D4A93424CD09B4A934263D89B4A3A
:1017BC00934246D0994A93425DD8122B2AD8122BC9
:1017CC0059D801A252F823F04F1800082918000824
:1017DC003B1800087D1800088318000883180008BF
:1017EC008318000883180008831800088318000861
:1017FC008318000883180008831800088318000851
:10180C008318000883180008831800083118000892
:10181C0045180008824A934213D02CE03B68DB68E1
:10182C003B6229E03B68DB6804333B6224E03B68A5
:10183C00DB6808333B621FE03B68DB680C333B62C0
:10184C001AE03B689B68002B02D104233B6213E037
:10185C003B689B68012B05D108233B627B68FA69C6
:10186C001A6109E008233B627B68FA695A6103E05C
:10187C0000233B6200E000BFBB69FF2B01D87B68F3
:10188C0001E07B6804337B61BB69FF2B02D87B6A68
:10189C009B0002E07B6A083B9B003B617B691A68FA
:1018AC000F213B6901FA03F3DB431A40396A3B69A8
:1018BC0001FA03F31A437B691A603B685B6803F017
:1018CC008053002B00F09080564B9B69554A43F097
:1018DC0001039361534B9B6903F00103BB60BB682D
:1018EC00514A7B6A9B08023352F82330FB607B6AB7
:1018FC0003F003039B000F2202FA03F3DB43FA68A5
:10190C001340FB607B68494A93420DD07B68484A80
:10191C00934207D07B68474A934201D1022304E0EB
:10192C00032302E0012300E000237A6A02F00302A1
:10193C0092009340FA681343FB603B497B6A9B0817
:10194C000233FA6841F823203B685B6803F4801388
:10195C00002B06D0384B9A683749BB6913438B6010
:10196C0006E0354B9A68BB69DB43334913408B6007
:10197C003B685B6803F40013002B06D02E4BDA682F
:10198C002D49BB691343CB6006E02B4BDA68BB696E
:10199C00DB4329491340CB603B685B6803F400339D
:1019AC00002B06D0244B5A682349BB6913434B6068
:1019BC0006E0214B5A68BB69DB431F4913404B605F
:1019CC003B685B6803F48033002B06D01A4B1A6813
:1019DC001949BB6913430B6006E0174B1A68BB69C6
:1019EC00DB43154913400B607B6A01337B623B6818
:1019FC001A687B6A22FA03F3002B7FF4AFAE00BFA8
:101A0C0000BF2C37BD4680BC704700BF00003210B1
:101A1C0000003110000022100000211000001210F4
:101A2C0000001110001002400000014000080140AD
:101A3C00000C0140001001400004014080B485B04E
:101A4C0000AF78600B467B807B689A687B8813407C
:101A5C00002B02D00123FB7301E00023FB73FB7B03
:101A6C0018461437BD4680BC704780B483B000AFB5
:101A7C0078600B467B8013467B707B78002B03D001
:101A8C007A887B681A6103E07B881A047B681A6188
:101A9C0000BF0C37BD4680BC7047000080B586B0D7
:101AAC0000AF78607B68002B01D101236CE27B686E
:101ABC001B6803F00103002B00F08780924B5B68DE
:101ACC0003F00C03042B0CD08F4B5B6803F00C035E
:101ADC00082B12D18C4B5B6803F48033B3F5803F39
:101AEC000BD1894B1B6803F40033002B6CD07B6843
:101AFC005B68002B68D1012346E27B685B68B3F519
:101B0C00803F06D1804B1B687F4A43F480331360BF
:101B1C002EE07B685B68002B0CD17B4B1B687A4AF0
:101B2C0023F480331360784B1B68774A23F48023AB
:101B3C0013601DE07B685B68B3F5A02F0CD1724B72
:101B4C001B68714A43F4802313606F4B1B686E4A09
:101B5C0043F4803313600BE06B4B1B686A4A23F42D
:101B6C0080331360684B1B68674A23F4802313602F
:101B7C007B685B68002B13D0FFF7CEFC386108E064
:101B8C00FFF7CAFC02463B69D31A642B01D9032325
:101B9C00FAE15D4B1B6803F40033002BF0D014E02A
:101BAC00FFF7BAFC386108E0FFF7B6FC02463B6968
:101BBC00D31A642B01D90323E6E1534B1B6803F4BE
:101BCC000033002BF0D100E000BF7B681B6803F0F2
:101BDC000203002B63D04C4B5B6803F00C03002B0F
:101BEC000BD0494B5B6803F00C03082B1CD1464B04
:101BFC005B6803F48033002B16D1434B1B6803F056
:101C0C000203002B05D07B681B69012B01D001233B
:101C1C00BAE13D4B1B6823F0F8027B685B69DB0083
:101C2C00394913430B603AE07B681B69002B20D0C9
:101C3C00364B01221A60FFF76FFC386108E0FFF7A2
:101C4C006BFC02463B69D31A022B01D903239BE19F
:101C5C002D4B1B6803F00203002BF0D02A4B1B68A2
:101C6C0023F0F8027B685B69DB00274913430B60A8
:101C7C0015E0264B00221A60FFF74EFC386108E095
:101C8C00FFF74AFC02463B69D31A022B01D9032306
:101C9C007AE11D4B1B6803F00203002BF0D17B682B
:101CAC001B6803F00803002B3AD07B689B69002B60
:101CBC0019D0174B01221A60FFF72EFC386108E08F
:101CCC00FFF72AFC02463B69D31A022B01D90323E6
:101CDC005AE10D4B5B6A03F00203002BF0D001209C
:101CEC0000F09AFA1CE00A4B00221A60FFF714FC71
:101CFC0038610FE0FFF710FC02463B69D31A022B48
:101D0C0008D9032340E100BF00100240000042420A
:101D1C00800442429E4B5B6A03F00203002BE9D124
:101D2C007B681B6803F00403002B00F0A6800023E3
:101D3C00FB75974BDB6903F08053002B0DD1944B53
:101D4C00DB69934A43F08053D361914BDB6903F019
:101D5C008053BB60BB680123FB758E4B1B6803F47F
:101D6C008073002B18D18B4B1B688A4A43F4807309
:101D7C001360FFF7D1FB386108E0FFF7CDFB02469B
:101D8C003B69D31A642B01D90323FDE0814B1B68FB
:101D9C0003F48073002BF0D07B68DB68012B06D139
:101DAC007B4B1B6A7A4A43F0010313622DE07B687C
:101DBC00DB68002B0CD1764B1B6A754A23F00103B0
:101DCC001362734B1B6A724A23F0040313621CE008
:101DDC007B68DB68052B0CD16D4B1B6A6C4A43F09E
:101DEC00040313626A4B1B6A694A43F001031362D2
:101DFC000BE0674B1B6A664A23F001031362644BCA
:101E0C001B6A634A23F0040313627B68DB68002BB4
:101E1C0015D0FFF781FB38610AE0FFF77DFB024626
:101E2C003B69D31A41F28832934201D90323ABE0C8
:101E3C00574B1B6A03F00203002BEED014E0FFF7A4
:101E4C006BFB38610AE0FFF767FB02463B69D31A6C
:101E5C0041F28832934201D9032395E04C4B1B6A23
:101E6C0003F00203002BEED1FB7D012B05D1484B77
:101E7C00DB69474A23F08053D3617B68DB69002B15
:101E8C0000F08180424B5B6803F00C03082B61D09F
:101E9C007B68DB69022B46D13F4B00221A60FFF7AF
:101EAC003BFB386108E0FFF737FB02463B69D31A6E
:101EBC00022B01D9032367E0354B1B6803F0007339
:101ECC00002BF0D17B681B6AB3F5803F08D1304BF7
:101EDC005B6823F400327B689B682D4913434B608D
:101EEC002B4B5B6823F474127B68196A7B685B6A02
:101EFC000B43274913434B60274B01221A60FFF712
:101F0C000BFB386108E0FFF707FB02463B69D31A6D
:101F1C00022B01D9032337E01D4B1B6803F0007320
:101F2C00002BF0D02FE01C4B00221A60FFF7F4FAC4
:101F3C00386108E0FFF7F0FA02463B69D31A022B2E
:101F4C0001D9032320E0124B1B6803F00073002B14
:101F5C00F0D118E07B68DB69012B01D1012313E080
:101F6C000B4B5B68FB60FB6803F480327B681B6A7D
:101F7C009A4206D1FB6803F470127B685B6A9A4242
:101F8C0001D0012300E0002318461837BD4680BD60
:101F9C0000100240007000406000424280B584B0E6
:101FAC0000AF786039607B68002B01D10123D0E051
:101FBC006A4B1B6803F007033A689A4210D9674BC7
:101FCC001B6823F0070265493B6813430B60634BA6
:101FDC001B6803F007033A689A4201D00123B8E06A
:101FEC007B681B6803F00203002B20D07B681B6806
:101FFC0003F00403002B05D0594B5B68584A43F49B
:10200C00E06353607B681B6803F00803002B05D06A
:10201C00534B5B68524A43F460535360504B5B68BC
:10202C0023F0F0027B689B684D4913434B607B683F
:10203C001B6803F00103002B40D07B685B68012B0D
:10204C0007D1474B1B6803F40033002B15D1012338
:10205C007FE07B685B68022B07D1414B1B6803F068
:10206C000073002B09D1012373E03D4B1B6803F077
:10207C000203002B01D101236BE0394B5B6823F089
:10208C0003027B685B68364913434B60FFF744FAE5
:10209C00F8600AE0FFF740FA0246FB68D31A41F2F7
:1020AC008832934201D9032353E02D4B5B6803F034
:1020BC000C027B685B689B009A42EBD1274B1B6838
:1020CC0003F007033A689A4210D2244B1B6823F0A2
:1020DC00070222493B6813430B60204B1B6803F03B
:1020EC0007033A689A4201D0012332E07B681B68EF
:1020FC0003F00403002B08D0194B5B6823F4E06257
:10210C007B68DB68164913434B607B681B6803F0E4
:10211C000803002B09D0124B5B6823F460527B68D8
:10212C001B69DB000E4913434B6000F021F802469B
:10213C000B4B5B681B0903F00F030A49CB5C22FABB
:10214C0003F3094A1360094B1B681846FFF7A2F901
:10215C00002318461037BD4680BD00BF002002404A
:10216C0000100240882A0008480000204C00002083
:10217C0080B487B000AF0023FB600023BB6000235A
:10218C007B6100237B6000233B611E4B5B68FB6023
:10219C00FB6803F00C03042B02D0082B03D027E0C0
:1021AC00194B3B6127E0FB689B0C03F00F03174AAC
:1021BC00D35C7B60FB6803F48033002B10D0114B95
:1021CC005B685B0C03F00103114AD35CBB607B685A
:1021DC000D4A02FB03F2BB68B2FBF3F37B6104E034
:1021EC007B680C4A02FB03F37B617B693B6102E079
:1021FC00054B3B6100BF3B6918461C37BD4680BC94
:10220C00704700BF0010024000127A00982A0008A4
:10221C00A82A000800093D0080B485B000AF7860A2
:10222C000A4B1B680A4AA2FB03235B0A7A6802FB6F
:10223C0003F3FB6000BFFB685A1EFA60002BF9D158
:10224C0000BF00BF1437BD4680BC7047480000205B
:10225C00D34D621080B582B000AF78607B68002BE4
:10226C0001D1012341E07B6893F83D30DBB2002BB8
:10227C0006D17B68002283F83C207868FFF772F85F
:10228C007B68022283F83D207B681A687B680433E4
:10229C001946104600F056FA7B68012283F8462056
:1022AC007B68012283F83E207B68012283F83F2063
:1022BC007B68012283F840207B68012283F841204F
:1022CC007B68012283F842207B68012283F843203B
:1022DC007B68012283F844207B68012283F8452027
:1022EC007B68012283F83D20002318460837BD4641
:1022FC0080BD000080B485B000AF78607B6893F837
:10230C003D30DBB2012B01D0012335E07B6802228A
:10231C0083F83D207B681B68DA687B681B6842F099
:10232C000102DA607B681B68164A934209D07B680D
:10233C001B68B3F1804F04D07B681B68124A934230
:10234C0011D17B681B689B6803F00703FB60FB687B
:10235C00062B10D07B681B681A687B681B6842F0E0
:10236C0001021A6007E07B681B681A687B681B68AF
:10237C0042F001021A60002318461437BD4680BC97
:10238C00704700BF002C01400004004080B584B0B1
:10239C0000AF78607B681B68DB68FB607B681B6840
:1023AC001B69BB60BB6803F00203002B20D0FB68E9
:1023BC0003F00203002B1BD07B681B686FF002023A
:1023CC001A617B6801221A777B681B689B6903F092
:1023DC000303002B03D0786800F098F905E07868C7
:1023EC0000F08BF9786800F09AF97B6800221A7774
:1023FC00BB6803F00403002B20D0FB6803F004033C
:10240C00002B1BD07B681B686FF004021A617B6881
:10241C0002221A777B681B689B6903F44073002BBC
:10242C0003D0786800F072F905E0786800F065F97F
:10243C00786800F074F97B6800221A77BB6803F0A7
:10244C000803002B20D0FB6803F00803002B1BD0E3
:10245C007B681B686FF008021A617B6804221A778C
:10246C007B681B68DB6903F00303002B03D07868DF
:10247C0000F04CF905E0786800F03FF9786800F05E
:10248C004EF97B6800221A77BB6803F01003002B0F
:10249C0020D0FB6803F01003002B1BD07B681B685B
:1024AC006FF010021A617B6808221A777B681B6830
:1024BC00DB6903F44073002B03D0786800F026F935
:1024CC0005E0786800F019F9786800F028F97B6865
:1024DC0000221A77BB6803F00103002B0CD0FB68B9
:1024EC0003F00103002B07D07B681B686FF001021F
:1024FC001A617868FEF70AFEBB6803F08003002BB4
:10250C000CD0FB6803F08003002B07D07B681B68A2
:10251C006FF080021A61786800F06FFABB6803F004
:10252C004003002B0CD0FB6803F04003002B07D0BA
:10253C007B681B686FF040021A61786800F0F8F84D
:10254C00BB6803F02003002B0CD0FB6803F02003C6
:10255C00002B07D07B681B686FF020021A6178682B
:10256C0000F042FA00BF1037BD4680BD80B584B084
:10257C0000AF786039600023FB737B6893F83C30C4
:10258C00012B01D10223B4E07B68012283F83C20AB
:10259C007B68022283F83D207B681B689B68BB60CC
:1025AC00BB6823F07703BB60BB6823F47F43BB603D
:1025BC007B681B68BA689A603B681B68B3F5005F60
:1025CC003ED0B3F5005F00F28780B3F5805F00F07A
:1025DC008680B3F5805F7FD8702B1AD0702B7BD898
:1025EC00602B50D0602B77D8502B3CD0502B73D80D
:1025FC00402B58D0402B6FD8302B64D0302B6BD85D
:10260C00202B60D0202B67D8002B5CD0102B5AD0FD
:10261C0062E07B6818683B6899683B685A683B685D
:10262C00DB6800F06AF97B681B689B68BB60BB6861
:10263C0043F07703BB607B681B68BA689A604FE015
:10264C007B6818683B6899683B685A683B68DB682C
:10265C0000F053F97B681B689A687B681B6842F42E
:10266C0080429A603CE07B6818683B6859683B681C
:10267C00DB681A4600F0CAF87B681B6850211846C4
:10268C0000F021F92CE07B6818683B6859683B68BE
:10269C00DB681A4600F0E8F87B681B686021184676
:1026AC0000F011F91CE07B6818683B6859683B68BE
:1026BC00DB681A4600F0AAF87B681B6840211846B4
:1026CC0000F001F90CE07B681A683B681B6819463E
:1026DC00104600F0F8F803E00123FB7300E000BFA4
:1026EC007B68012283F83D207B68002283F83C2024
:1026FC00FB7B18461037BD4680BD80B483B000AF5D
:10270C00786000BF0C37BD4680BC704780B483B086
:10271C0000AF786000BF0C37BD4680BC704780B4FA
:10272C0083B000AF786000BF0C37BD4680BC7047EB
:10273C0080B483B000AF786000BF0C37BD4680BC5E
:10274C007047000080B485B000AF786039607B685A
:10275C001B68FB607B682B4A934207D07B68B3F104
:10276C00804F03D07B68284A934208D1FB6823F042
:10277C007003FB603B685B68FA681343FB607B6823
:10278C00204A934207D07B68B3F1804F03D07B681B
:10279C001D4A934208D1FB6823F44073FB603B68ED
:1027AC00DB68FA681343FB60FB6823F080023B682C
:1027BC005B691343FB607B68FA681A603B689A6834
:1027CC007B68DA623B681A687B689A627B680D4AA0
:1027DC00934203D13B681A697B681A637B680122B8
:1027EC005A617B681B6903F00103002B05D07B68E1
:1027FC001B6923F001027B681A6100BF1437BD46C8
:10280C0080BC7047002C01400004004080B487B0AD
:10281C0000AFF860B9607A60FB681B6A7B61FB688B
:10282C001B6A23F00102FB681A62FB689B693B611F
:10283C003B6923F0F0033B617B681B013A6913434E
:10284C003B617B6923F00A037B617A69BB681343A4
:10285C007B61FB683A699A61FB687A691A6200BF0E
:10286C001C37BD4680BC704780B487B000AFF860A1
:10287C00B9607A60FB681B6A7B61FB681B6A23F09A
:10288C001002FB681A62FB689B693B613B6923F48D
:10289C0070433B617B681B033A6913433B617B6963
:1028AC0023F0A0037B61BB681B017A6913437B6136
:1028BC00FB683A699A61FB687A691A6200BF1C3737
:1028CC00BD4680BC704780B485B000AF786039607D
:1028DC007B689B68FB60FB6823F07003FB603A68C5
:1028EC00FB68134343F00703FB607B68FA689A604C
:1028FC0000BF1437BD4680BC704780B487B000AFB2
:10290C00F860B9607A603B60FB689B687B617B69AF
:10291C0023F47F437B613B681A027B681A43BB68D4
:10292C0013437A6913437B61FB687A699A6000BF31
:10293C001C37BD4680BC704780B485B000AF786052
:10294C0039607B6893F83C30012B01D1022341E0C4
:10295C007B68012283F83C207B68022283F83D20AF
:10296C007B681B685B68FB607B681B689B68BB6053
:10297C00FB6823F07003FB603B681B68FA68134329
:10298C00FB607B681B68FA685A607B681B68144A9A
:10299C00934209D07B681B68B3F1804F04D07B68ED
:1029AC001B68104A93420CD1BB6823F08003BB60B8
:1029BC003B685B68BA681343BB607B681B68BA688A
:1029CC009A607B68012283F83D207B68002283F8A3
:1029DC003C20002318461437BD4680BC704700BF0E
:1029EC00002C01400004004080B483B000AF78603C
:1029FC0000BF0C37BD4680BC704780B483B000AFBD
:102A0C00786000BF0C37BD4680BC704770B500269F
:102A1C000C4D0D4C641BA410A64209D100F022F8F9
:102A2C0000260A4D0A4C641BA410A64205D170BDA9
:102A3C0055F8043B98470136EEE755F8043B9847A8
:102A4C000136F2E7AC2A0008AC2A0008AC2A0008D0
:102A5C00B02A000803460244934200D1704703F8A1
:102A6C00011BF9E7F8B500BFF8BC08BC9E467047DF
:0C2A7C00F8B500BFF8BC08BC9E467047CF
:102A88000000000000000000010203040607080916
:102A980002030405060708090A0B0C0D0E0F101097
:042AA8000102000027
:042AAC0031010008EC
:042AB0000D0100080C
:102AB400010000000100000001000000010000000E
:102AC40001000000010000000100000001000000FE
:102AD40001000000010000000100000001000000EE
:102AE400C8000000C8000000C80000000500000085
:102AF400020000000300000000127A001000000031
:042B040001000000CC
:0400000508001429B2
:00000001FF
