:020000040800F2
:1000000000280020FD1000088D1000089310000843
:10001000991000089F100008A510000800000000BB
:10002000000000000000000000000000AB1000080D
:10003000B710000800000000C3100008CF1000082F
:100040004511000845110008451100084511000838
:100050004511000845110008451100084511000828
:100060004511000845110008451100084511000818
:100070004511000845110008451100084511000808
:1000800045110008451100084511000845110008F8
:1000900045110008451100084511000845110008E8
:1000A00045110008451100084511000845110008D8
:1000B000DD1000084511000800000000451100088F
:1000C0004511000800000000000000004511000874
:1000D0000000000045110008451100080000000064
:1000E00045110008451100084511000800000000F6
:1000F0000000000000000000000000000000000000
:0C01000000000000000000005FF808F1A3
:10010C0010B5054C237833B9044B13B10448AFF345
:10011C0000800123237010BD480000200000000067
:10012C007427000808B5034B1BB103490348AFF310
:10013C00008008BD000000004C000020742700085F
:10014C0080B400AF034B01221A6000BFBD4680BCD7
:10015C00704700BF6400002080B400AF034B012245
:10016C001A6000BFBD4680BC704700BF680000200D
:10017C0080B400AF034B01221A6000BFBD4680BCA7
:10018C00704700BF6C00002080B500AF1F4B1B6890
:10019C001F4A13601F4B1B681C4A13604FF40071FD
:1001AC001D4801F0B5FA03461A461A4B1A60184B53
:1001BC001A68164B1B689A4225D1144B1A68154BBA
:1001CC001B689A421FD1154B1A68124B1B689A4236
:1001DC000DD0104B1B68114A13600E4B1B68002B83
:1001EC0011D1FFF7ADFF0E4BC8221A600BE00C4B80
:1001FC001B68013B0A4A1360094B1B68002B02D198
:10020C00064B01221A6000BF80BD00BF0400002015
:10021C000000002008000020000C01400C00002011
:10022C003000002080B500AF1F4B1B681F4A1360C5
:10023C001F4B1B681C4A13604FF480611D4801F072
:10024C0067FA03461A461A4B1A60184B1A68164B73
:10025C001B689A4225D1144B1A68154B1B689A429D
:10026C001FD1154B1A68124B1B689A420DD0104BBC
:10027C001B68114A13600E4B1B68002B11D1FFF742
:10028C006BFF0E4BC8221A600BE00C4B1B68013B3A
:10029C000A4A1360094B1B68002B02D1064B012242
:1002AC001A6000BF80BD00BF1400002010000020A9
:1002BC0018000020000C01401C000020340000201D
:1002CC0080B500AF1F4B1B681F4A13601F4B1B6888
:1002DC001C4A13604FF400611D4801F019FA0346E3
:1002EC001A461A4B1A60184B1A68164B1B689A421E
:1002FC0025D1144B1A68154B1B689A421FD1154B0C
:10030C001A68124B1B689A420DD0104B1B68114A8D
:10031C0013600E4B1B68002B11D1FFF729FF0E4BFE
:10032C00C8221A600BE00C4B1B68013B0A4A136095
:10033C00094B1B68002B02D1064B01221A6000BF2F
:10034C0080BD00BF240000202000002028000020D9
:10035C00000C01402C0000203800002080B582B039
:10036C0000AF78607B68092B00F2BC8101A252F8C7
:10037C0023F000BFA9030008FD0300085104000886
:10038C00A5040008F90400084D050008A1050008A3
:10039C00F5050008490600089D060008002280218A
:1003AC00D34801F0CCF900224FF48071D04801F011
:1003BC00C6F900224FF40071CD4801F0C0F90022BB
:1003CC004FF48061CA4801F0BAF900224FF4006181
:1003DC00C74801F0B4F900224FF48051C44801F031
:1003EC00AEF901224FF40051C14801F0A8F97AE1AD
:1003FC0001228021BE4801F0A2F900224FF4807145
:10040C00BB4801F09CF900224FF40071B84801F090
:10041C0096F901224FF48061B54801F090F9012260
:10042C004FF40061B24801F08AF901224FF4805177
:10043C00AF4801F084F901224FF40051AC4801F0AF
:10044C007EF950E100228021A94801F078F90022C0
:10045C004FF48071A64801F072F901224FF400713B
:10046C00A34801F06CF900224FF48061A04801F020
:10047C0066F900224FF400619D4801F060F90122F9
:10048C004FF480519A4801F05AF900224FF4005170
:10049C00974801F054F926E100228021944801F09C
:1004AC004EF900224FF48071914801F048F9002276
:1004BC004FF400718E4801F042F900224FF4806134
:1004CC008B4801F03CF901224FF40061884801F09F
:1004DC0036F901224FF48051854801F030F90022A1
:1004EC004FF40051824801F02AF9FCE001228021EE
:1004FC007F4801F024F900224FF480717C4801F010
:10050C001EF900224FF40071794801F018F901220C
:10051C004FF48061764801F012F901224FF400612A
:10052C00734801F00CF900224FF48051704801F02F
:10053C0006F900224FF400516D4801F000F9D2E0A9
:10054C00002280216A4801F0FAF801224FF48071F0
:10055C00674801F0F4F800224FF40071644801F090
:10056C00EEF800224FF48061614801F0E8F80122B6
:10057C004FF400615E4801F0E2F800224FF4805124
:10058C005B4801F0DCF800224FF40051584801F0B0
:10059C00D6F8A8E000228021554801F0D0F80122BD
:1005AC004FF48071524801F0CAF800224FF40071E8
:1005BC004F4801F0C4F800224FF480614C4801F020
:1005CC00BEF800224FF40061494801F0B8F800224F
:1005DC004FF48051464801F0B2F800224FF400511C
:1005EC00434801F0ACF87EE000228021404801F045
:1005FC00A6F800224FF480713D4801F0A0F80022CB
:10060C004FF400713A4801F09AF801224FF48061DE
:10061C00374801F094F801224FF40061344801F09E
:10062C008EF801224FF48051314801F088F80122F4
:10063C004FF400512E4801F082F854E00022802142
:10064C002B4801F07CF800224FF48071284801F00F
:10065C0076F800224FF40071254801F070F8002262
:10066C004FF48061224801F06AF800224FF40061D7
:10067C001F4801F064F800224FF480511C4801F02F
:10068C005EF800224FF40051194801F058F82AE0A6
:10069C0000228021164801F052F800224FF480719C
:1006AC00134801F04CF800224FF40071104801F08F
:1006BC0046F800224FF480610D4801F040F8012209
:1006CC004FF400610A4801F03AF800224FF48051CF
:1006DC00074801F034F800224FF40051044801F0AF
:1006EC002EF800E000BF00BF0837BD4680BD00BF3C
:1006FC000008014080B582B000AF78607B68092BA0
:10070C0000F2808101A252F823F000BF41070008DB
:10071C0089070008D10700081908000861080008BB
:10072C00A9080008F1080008390900088109000827
:10073C00C909000800220121B54801F000F8002287
:10074C000221B34800F0FBFF00220421B04800F066
:10075C00F6FF00220821AE4800F0F1FF0022102124
:10076C00AB4800F0ECFF00222021A94800F0E7FF85
:10077C0001224021A64800F0E2FF44E101220121C0
:10078C00A34800F0DCFF00220221A14800F0D7FFB3
:10079C00002204219E4800F0D2FF012208219C482F
:1007AC0000F0CDFF01221021994800F0C8FF012272
:1007BC002021974800F0C3FF01224021944800F00B
:1007CC00BEFF20E100220121914800F0B8FF002279
:1007DC0002218F4800F0B3FF012204218C4800F065
:1007EC00AEFF002208218A4800F0A9FF0022102148
:1007FC00874800F0A4FF01222021854800F09FFFCC
:10080C0000224021824800F09AFFFCE000220121E6
:10081C007F4800F094FF002202217D4800F08FFFFA
:10082C00002204217A4800F08AFF0022082178482F
:10083C0000F085FF01221021754800F080FF012295
:10084C002021734800F07BFF00224021704800F00B
:10085C0076FFD8E0012201216D4800F070FF0022E4
:10086C0002216B4800F06BFF00220421684800F065
:10087C0066FF01220821664800F061FF0122102169
:10088C00634800F05CFF00222021614800F057FF14
:10089C00002240215E4800F052FFB4E0002201210A
:1008AC005B4800F04CFF01220221594800F047FF41
:1008BC0000220421564800F042FF0022082154482F
:1008CC0000F03DFF01221021514800F038FF0022BA
:1008DC0020214F4800F033FF002240214C4800F00B
:1008EC002EFF90E000220121494800F028FF012250
:1008FC000221474800F023FF00220421444800F065
:10090C001EFF00220821424800F019FF002210218E
:10091C003F4800F014FF002220213D4800F00FFF5B
:10092C00002240213A4800F00AFF6CE0002201212D
:10093C00374800F004FF00220221354800F0FFFE8A
:10094C0000220421324800F0FAFE0122082130482E
:10095C0000F0F5FE012210212D4800F0F0FE0122DE
:10096C0020212B4800F0EBFE01224021284800F00A
:10097C00E6FE48E000220121254800F0E0FE0022BE
:10098C000221234800F0DBFE00220421204800F065
:10099C00D6FE002208211E4800F0D1FE00221021B4
:1009AC001B4800F0CCFE00222021194800F0C7FEA5
:1009BC0000224021164800F0C2FE24E00022012152
:1009CC00134800F0BCFE00220221114800F0B7FED3
:1009DC00002204210E4800F0B2FE002208210C482F
:1009EC0000F0ADFE01221021094800F0A8FE002203
:1009FC002021074800F0A3FE00224021044800F00B
:100A0C009EFE00E000BF00BF0837BD4680BD00BFA2
:100A1C00000C014080B582B000AF78607B68002B81
:100A2C0003D07B68012B22D043E000224FF480419D
:100A3C00224800F084FE01224FF400411F4800F0D0
:100A4C007EFE002280211E4800F079FE01224FF428
:100A5C0080511B4800F073FE1A4B1B681846FFF7B9
:100A6C0049FE194B1B681846FFF778FC21E0012260
:100A7C004FF48041114800F062FE00224FF4004117
:100A8C000E4800F05CFE012280210D4800F057FE5C
:100A9C0000224FF480510A4800F051FE094B5B686C
:100AAC001846FFF727FE084B5B681846FFF756FC05
:100ABC0000BF00BF0837BD4680BD00BF0008014025
:100ACC00000C01407C0000207400002080B582B036
:100ADC0000AF786039607B68092B05DC2E4B002257
:100AEC001A602D4A7B6853607B68092B16DD7B6886
:100AFC002A4A82FB03129210DB17D31A264A136080
:100B0C007968264B83FB01239A10CB17D21A134614
:100B1C009B0013445B00CA1A1F4B5A603B68092B9D
:100B2C0005DC1F4B00221A601D4A3B6853603B6872
:100B3C00092B16DD3B68194A82FB03129210DB1756
:100B4C00D31A174A13603968144B83FB01239A108C
:100B5C00CB17D21A13469B0013445B00CA1A104BD6
:100B6C005A60104B1B68012B11D10F4B1B685A1C80
:100B7C000D490A601846FFF74DFF0B4B1B68012B04
:100B8C0002DD094B00221A60192000F07DF900BF2C
:100B9C000837BD4680BD00BF7400002067666666DE
:100BAC007C000020840000207000002080B500AF85
:100BBC0000F0C4FA00F02AF800F0B0F800F062F887
:100BCC000B4801F019FA0B4B01221A600A4B012257
:100BDC001A600A4B01221A60094B01221A60094B58
:100BEC0001221A60084B01221A6000F010F9FCE790
:100BFC00B400002084000020880000208C0000201D
:100C0C0090000020940000209800002080B590B047
:100C1C0000AF07F1180328220021184601F09CFDB3
:100C2C003B1D00221A605A609A60DA601A61022336
:100C3C00BB610123BB621023FB6200237B6307F1C2
:100C4C001803184600F0ACFD0346002B01D000F051
:100C5C00D9F80F237B600023BB600023FB600023CB
:100C6C003B6100237B613B1D0021184601F018F805
:100C7C000346002B01D000F0C5F800BF4037BD463D
:100C8C0080BD000080B586B000AF07F108030022DC
:100C9C001A605A609A60DA603B4600221A605A6009
:100CAC001D4B4FF080421A601B4B41F63F725A604D
:100CBC00194B00229A60184B0922DA60164B00225D
:100CCC001A61154B00229A61134801F045F903464D
:100CDC00002B01D000F096F84FF48053BB6007F165
:100CEC00080319460C4801F0C3FA0346002B01D047
:100CFC0000F088F800233B6000237B603B461946DC
:100D0C00054801F09BFC0346002B01D000F07AF85B
:100D1C0000BF1837BD4680BDB400002080B586B03A
:100D2C0000AF07F1080300221A605A609A60DA607B
:100D3C00294B9B69284A43F004039361264B9B691A
:100D4C0003F004037B607B68234B9B69224A43F0CE
:100D5C0008039361204B9B6903F008033B603B68DD
:100D6C0000224FF6FE711D4800F0E9FC002241F212
:100D7C00FF011B4800F0E3FC4FF6FE73BB60012340
:100D8C00FB6000233B6102237B6107F108031946DA
:100D9C00124800F043FB41F2FF03BB600123FB60F0
:100DAC0000233B6102237B6107F1080319460C48C1
:100DBC0000F034FB4FF46063BB600023FB60012345
:100DCC003B6107F108031946054800F027FB00BFFB
:100DDC001837BD4680BD00BF00100240000801401E
:100DEC00000C014080B582B000AF786000F074F860
:100DFC00FFF7CAF9FFF716FAFFF762FA00BF0837D8
:100E0C00BD4680BD80B400AF72B600BFFEE780B5B2
:100E1C0000AF00F003F800BF80BD000080B582B0C9
:100E2C0000AF03237B6003233B60012204211448A1
:100E3C0000F085FC01220221114800F080FC012207
:100E4C0020210F4800F07BFC012210210C4800F0FF
:100E5C0076FC39687868FFF739FE0A4B1B68012B62
:100E6C000AD10821064800F082FC4021044800F019
:100E7C007EFC322000F01CF800BF0837BD4680BD58
:100E8C00000801409800002080B483B000AF786067
:100E9C00054A7B681360054B00221A6000BF0C37B3
:100EAC00BD4680BC704700BF9C0000208400002021
:100EBC0080B483B000AF7860054A7B681360054B43
:100ECC0000221A6000BF0C37BD4680BC704700BFC3
:100EDC00B00000209800002080B400AF314B1B689C
:100EEC00002B0BDD2F4B1B68013B2E4A13602D4B47
:100EFC001B68002B02DC2C4B01221A602B4B1B684D
:100F0C00002B0BDD294B1B68013B284A1360274B38
:100F1C001B68002B02DC264B01221A60254B1B6838
:100F2C00002B0BDD234B1B68013B224A1360214B2A
:100F3C001B68002B02DC204B01221A601F4B1B6824
:100F4C00002B0BDD1D4B1B68013B1C4A13601B4B1C
:100F5C001B68002B02DC1A4B01221A60194B1B6810
:100F6C00002B0BDD174B1B68013B164A1360154B0E
:100F7C001B68002B02DC144B01221A60134B1B68FC
:100F8C00002B0BDD114B1B68013B104A13600F4B00
:100F9C001B68002B02DC0E4B01221A6000BFBD4601
:100FAC0080BC70479C00002084000020A000002022
:100FBC0088000020A40000208C000020A800002045
:100FCC0090000020AC00002094000020B000002015
:100FDC009800002080B485B000AF154B9B69144A73
:100FEC0043F001039361124B9B6903F00103BB6057
:100FFC00BB680F4BDB690E4A43F08053D3610C4B3B
:10100C00DB6903F080537B607B680A4B5B68FB6099
:10101C00FB6823F0E063FB60FB6843F08063FB60DC
:10102C00044AFB68536000BF1437BD4680BC704750
:10103C00001002400000014080B584B000AF786021
:10104C007B681B68B3F1804F13D10C4BDB690B4AE7
:10105C0043F00103D361094BDB6903F00103FB602F
:10106C00FB68002200211C2000F0A1F91C2000F0DC
:10107C00BAF900BF1037BD4680BD00BF001002405A
:10108C0080B400AFFEE780B400AFFEE780B400AFE1
:10109C00FEE780B400AFFEE780B400AFFEE780B49B
:1010AC0000AF00BFBD4680BC704780B400AF00BF2E
:1010BC00BD4680BC704780B400AF00BFBD4680BC4D
:1010CC00704780B500AF00F07FF800BF80BD000016
:1010DC0080B500AF024800F0DBFF00BF80BD00BF51
:1010EC00B400002080B400AF00BFBD4680BC704788
:1010FC00FFF7F8FF0B480C490C4A002302E0D458C8
:10110C00C4500433C4188C42F9D3094A094C002347
:10111C0001E013600432A242FBD301F0F9FAFFF7AD
:10112C0045FD70470000002048000020B82700084B
:10113C004800002000010020FEE7000080B500AF51
:10114C00084B1B68074A43F010031360032000F0A0
:10115C0023F90F2000F008F8FFF73CFF0023184696
:10116C0080BD00BF0020024080B582B000AF786027
:10117C00124B1A68124B1B7819464FF47A73B3FB57
:10118C00F1F3B2FBF3F3184600F03BF90346002BE6
:10119C0001D001230EE07B680F2B0AD8002279685E
:1011AC004FF0FF3000F003F9064A7B681360002310
:1011BC0000E0012318460837BD4680BD3C000020E6
:1011CC00440000204000002080B400AF054B1B7889
:1011DC001A46054B1B681344034A136000BFBD46F7
:1011EC0080BC704744000020FC00002080B400AF9D
:1011FC00024B1B681846BD4680BC7047FC000020A3
:10120C0080B485B000AF78607B6803F00703FB60A7
:10121C000C4BDB68BB60BA684FF6FF031340BB6036
:10122C00FB681A02BB68134343F0BF6343F40033FB
:10123C00BB60044ABB68D36000BF1437BD4680BC9A
:10124C00704700BF00ED00E080B400AF044BDB68DA
:10125C001B0A03F007031846BD4680BC704700BF4D
:10126C0000ED00E080B483B000AF0346FB7197F94A
:10127C000730002B0BDBFB7903F01F02064997F9B3
:10128C0007305B09012000FA02F241F8232000BF6D
:10129C000C37BD4680BC704700E100E080B483B0E1
:1012AC0000AF03463960FB7197F90730002B0ADB5E
:1012BC003B68DAB20C4997F907301201D2B20B44F1
:1012CC0083F800230AE03B68DAB20849FB7903F0A3
:1012DC000F03043B1201D2B20B441A7600BF0C3739
:1012EC00BD4680BC704700BF00E100E000ED00E0AF
:1012FC0080B489B000AFF860B9607A60FB6803F025
:10130C000703FB61FB69C3F10703042B28BF04230C
:10131C00BB61FB690433062B02D9FB69033B00E07C
:10132C0000237B614FF0FF32BB6902FA03F3DA430F
:10133C00BB681A407B699A404FF0FF317B6901FA18
:10134C0003F3D9437B680B40134318462437BD463F
:10135C0080BC704780B582B000AF78607B68013B81
:10136C00B3F1807F01D301230FE00A4A7B68013B74
:10137C0053600F214FF0FF30FFF790FF054B002219
:10138C009A60044B07221A60002318460837BD46A2
:10139C0080BD00BF10E000E080B582B000AF786087
:1013AC007868FFF72DFF00BF0837BD4680BD80B5BC
:1013BC0086B000AF0346B9607A60FB7300237B6193
:1013CC00FFF742FF78617A68B9687869FFF790FF98
:1013DC00024697F90F3011461846FFF75FFF00BF22
:1013EC001837BD4680BD80B582B000AF0346FB7197
:1013FC0097F907301846FFF735FF00BF0837BD4691
:10140C0080BD80B582B000AF78607868FFF7A2FF2E
:10141C00034618460837BD4680BD000080B48BB02B
:10142C0000AF7860396000237B6200233B6248E1A7
:10143C0001227B6A02FA03F3FB613B681B68FA69C1
:10144C001340BB61BA69FB699A4240F037813B6833
:10145C005B68A34A93425ED0A14A934275D8A14AD5
:10146C00934258D09F4A93426FD89F4A934252D08E
:10147C009D4A934269D89D4A93424CD09B4A9342D1
:10148C0063D89B4A934246D0994A93425DD8122B1B
:10149C002AD8122B59D801A252F823F02315000890
:1014AC00FD1400080F150008511500085715000809
:1014BC005715000857150008571500085715000850
:1014CC005715000857150008571500085715000840
:1014DC005715000857150008571500085715000830
:1014EC000515000819150008824A934213D02CE008
:1014FC003B68DB683B6229E03B68DB6804333B629A
:10150C0024E03B68DB6808333B621FE03B68DB6828
:10151C000C333B621AE03B689B68002B02D104231E
:10152C003B6213E03B689B68012B05D108233B62AF
:10153C007B68FA691A6109E008233B627B68FA69E7
:10154C005A6103E000233B6200E000BFBB69FF2B44
:10155C0001D87B6801E07B6804337B61BB69FF2B9E
:10156C0002D87B6A9B0002E07B6A083B9B003B61D4
:10157C007B691A680F213B6901FA03F3DB431A40BC
:10158C00396A3B6901FA03F31A437B691A603B68B9
:10159C005B6803F08053002B00F09080564B9B69E6
:1015AC00554A43F001039361534B9B6903F00103CC
:1015BC00BB60BB68514A7B6A9B08023352F82330EC
:1015CC00FB607B6A03F003039B000F2202FA03F318
:1015DC00DB43FA681340FB607B68494A93420DD0A9
:1015EC007B68484A934207D07B68474A934201D1B3
:1015FC00022304E0032302E0012300E000237A6AC3
:10160C0002F0030292009340FA681343FB603B49DB
:10161C007B6A9B080233FA6841F823203B685B68BD
:10162C0003F48013002B06D0384B9A683749BB69FA
:10163C0013438B6006E0354B9A68BB69DB43334937
:10164C0013408B603B685B6803F40013002B06D0DF
:10165C002E4BDA682D49BB691343CB6006E02B4B4C
:10166C00DA68BB69DB4329491340CB603B685B6894
:10167C0003F40033002B06D0244B5A682349BB6972
:10168C0013434B6006E0214B5A68BB69DB431F498F
:10169C0013404B603B685B6803F48033002B06D02F
:1016AC001A4B1A681949BB6913430B6006E0174BB8
:1016BC001A68BB69DB43154913400B607B6A013325
:1016CC007B623B681A687B6A22FA03F3002B7FF477
:1016DC00AFAE00BF00BF2C37BD4680BC704700BF0B
:1016EC000000321000003110000022100000211008
:1016FC000000121000001110001002400000014008
:10170C0000080140000C01400010014000040140A1
:10171C0080B485B000AF78600B467B807B689A689C
:10172C007B881340002B02D00123FB7301E00023C4
:10173C00FB73FB7B18461437BD4680BC704780B4E6
:10174C0083B000AF78600B467B8013467B707B7850
:10175C00002B03D07A887B681A6103E07B881A041B
:10176C007B681A6100BF0C37BD4680BC704780B4E3
:10177C0085B000AF78600B467B807B68DB68FB60D4
:10178C007A88FB6813401A04FB68D9437B880B40AA
:10179C001A437B681A6100BF1437BD4680BC704782
:1017AC0080B586B000AF78607B68002B01D1012337
:1017BC006CE27B681B6803F00103002B00F0878050
:1017CC00924B5B6803F00C03042B0CD08F4B5B68C3
:1017DC0003F00C03082B12D18C4B5B6803F48033A1
:1017EC00B3F5803F0BD1894B1B6803F40033002BFE
:1017FC006CD07B685B68002B68D1012346E27B6868
:10180C005B68B3F5803F06D1804B1B687F4A43F47D
:10181C00803313602EE07B685B68002B0CD17B4B14
:10182C001B687A4A23F480331360784B1B68774A21
:10183C0023F4802313601DE07B685B68B3F5A02F55
:10184C000CD1724B1B68714A43F4802313606F4BAD
:10185C001B686E4A43F4803313600BE06B4B1B68C0
:10186C006A4A23F480331360684B1B68674A23F47D
:10187C00802313607B685B68002B13D0FFF7B6FCEA
:10188C00386108E0FFF7B2FC02463B69D31A642BBF
:10189C0001D90323FAE15D4B1B6803F40033002BE1
:1018AC00F0D014E0FFF7A2FC386108E0FFF79EFCD3
:1018BC0002463B69D31A642B01D90323E6E1534B4F
:1018CC001B6803F40033002BF0D100E000BF7B68F1
:1018DC001B6803F00203002B63D04C4B5B6803F0D6
:1018EC000C03002B0BD0494B5B6803F00C03082B4B
:1018FC001CD1464B5B6803F48033002B16D1434B51
:10190C001B6803F00203002B05D07B681B69012BBD
:10191C0001D00123BAE13D4B1B6823F0F8027B6830
:10192C005B69DB00394913430B603AE07B681B6948
:10193C00002B20D0364B01221A60FFF757FC386180
:10194C0008E0FFF753FC02463B69D31A022B01D97E
:10195C0003239BE12D4B1B6803F00203002BF0D0FB
:10196C002A4B1B6823F0F8027B685B69DB00274974
:10197C0013430B6015E0264B00221A60FFF736FC70
:10198C00386108E0FFF732FC02463B69D31A022BA0
:10199C0001D903237AE11D4B1B6803F00203002BD2
:1019AC00F0D17B681B6803F00803002B3AD07B68EE
:1019BC009B69002B19D0174B01221A60FFF716FCFC
:1019CC00386108E0FFF712FC02463B69D31A022B80
:1019DC0001D903235AE10D4B5B6A03F00203002B80
:1019EC00F0D0012000F09AFA1CE00A4B00221A6099
:1019FC00FFF7FCFB38610FE0FFF7F8FB02463B6991
:101A0C00D31A022B08D9032340E100BF0010024077
:101A1C0000004242800442429E4B5B6A03F0020388
:101A2C00002BE9D17B681B6803F00403002B00F04A
:101A3C00A6800023FB75974BDB6903F08053002BCA
:101A4C000DD1944BDB69934A43F08053D361914B96
:101A5C00DB6903F08053BB60BB680123FB758E4BC5
:101A6C001B6803F48073002B18D18B4B1B688A4ABC
:101A7C0043F480731360FFF7B9FB386108E0FFF79C
:101A8C00B5FB02463B69D31A642B01D90323FDE055
:101A9C00814B1B6803F48073002BF0D07B68DB68F0
:101AAC00012B06D17B4B1B6A7A4A43F0010313626C
:101ABC002DE07B68DB68002B0CD1764B1B6A754ADA
:101ACC0023F001031362734B1B6A724A23F0040365
:101ADC0013621CE07B68DB68052B0CD16D4B1B6A19
:101AEC006C4A43F0040313626A4B1B6A694A43F065
:101AFC00010313620BE0674B1B6A664A23F0010378
:101B0C001362644B1B6A634A23F0040313627B6801
:101B1C00DB68002B15D0FFF769FB38610AE0FFF793
:101B2C0065FB02463B69D31A41F28832934201D9D4
:101B3C000323ABE0574B1B6A03F00203002BEED0E0
:101B4C0014E0FFF753FB38610AE0FFF74FFB024646
:101B5C003B69D31A41F28832934201D9032395E0B1
:101B6C004C4B1B6A03F00203002BEED1FB7D012BC7
:101B7C0005D1484BDB69474A23F08053D3617B681E
:101B8C00DB69002B00F08180424B5B6803F00C0397
:101B9C00082B61D07B68DB69022B46D13F4B0022BE
:101BAC001A60FFF723FB386108E0FFF71FFB0246C2
:101BBC003B69D31A022B01D9032367E0354B1B6811
:101BCC0003F00073002BF0D17B681B6AB3F5803FE8
:101BDC0008D1304B5B6823F400327B689B682D493D
:101BEC0013434B602B4B5B6823F474127B68196AAC
:101BFC007B685B6A0B43274913434B60274B0122DD
:101C0C001A60FFF7F3FA386108E0FFF7EFFA0246C3
:101C1C003B69D31A022B01D9032337E01D4B1B68F8
:101C2C0003F00073002BF0D02FE01C4B00221A6045
:101C3C00FFF7DCFA386108E0FFF7D8FA02463B6997
:101C4C00D31A022B01D9032320E0124B1B6803F09B
:101C5C000073002BF0D118E07B68DB69012B01D1FC
:101C6C00012313E00B4B5B68FB60FB6803F48032D1
:101C7C007B681B6A9A4206D1FB6803F470127B687E
:101C8C005B6A9A4201D0012300E000231846183702
:101C9C00BD4680BD00100240007000406000424212
:101CAC0080B584B000AF786039607B68002B01D1BF
:101CBC000123D0E06A4B1B6803F007033A689A4291
:101CCC0010D9674B1B6823F0070265493B68134327
:101CDC000B60634B1B6803F007033A689A4201D010
:101CEC000123B8E07B681B6803F00203002B20D0B3
:101CFC007B681B6803F00403002B05D0594B5B6811
:101D0C00584A43F4E06353607B681B6803F0080394
:101D1C00002B05D0534B5B68524A43F4605353601D
:101D2C00504B5B6823F0F0027B689B684D49134372
:101D3C004B607B681B6803F00103002B40D07B6871
:101D4C005B68012B07D1474B1B6803F40033002B56
:101D5C0015D101237FE07B685B68022B07D1414BD7
:101D6C001B6803F00073002B09D1012373E03D4B7A
:101D7C001B6803F00203002B01D101236BE0394BEC
:101D8C005B6823F003027B685B68364913434B6046
:101D9C00FFF72CFAF8600AE0FFF728FA0246FB6816
:101DAC00D31A41F28832934201D9032353E02D4BCD
:101DBC005B6803F00C027B685B689B009A42EBD17A
:101DCC00274B1B6803F007033A689A4210D2244B46
:101DDC001B6823F0070222493B6813430B60204B1E
:101DEC001B6803F007033A689A4201D0012332E0E2
:101DFC007B681B6803F00403002B08D0194B5B684D
:101E0C0023F4E0627B68DB68164913434B607B6804
:101E1C001B6803F00803002B09D0124B5B6823F4FA
:101E2C0060527B681B69DB000E4913434B6000F06A
:101E3C0021F802460B4B5B681B0903F00F030A49A0
:101E4C00CB5C22FA03F3094A1360094B1B68184652
:101E5C00FFF78AF9002318461037BD4680BD00BF36
:101E6C0000200240001002408C2700083C0000209B
:101E7C004000002080B487B000AF0023FB6000233B
:101E8C00BB6000237B6100237B6000233B611E4B06
:101E9C005B68FB60FB6803F00C03042B02D0082B7F
:101EAC0003D027E0194B3B6127E0FB689B0C03F048
:101EBC000F03174AD35C7B60FB6803F48033002B61
:101ECC0010D0114B5B685B0C03F00103114AD35C1F
:101EDC00BB607B680D4A02FB03F2BB68B2FBF3F3F9
:101EEC007B6104E07B680C4A02FB03F37B617B693A
:101EFC003B6102E0054B3B6100BF3B6918461C3758
:101F0C00BD4680BC704700BF0010024000127A0032
:101F1C009C270008AC27000800093D0080B485B060
:101F2C0000AF78600A4B1B680A4AA2FB03235B0ACA
:101F3C007A6802FB03F3FB6000BFFB685A1EFA6071
:101F4C00002BF9D100BF00BF1437BD4680BC7047D1
:101F5C003C000020D34D621080B582B000AF786099
:101F6C007B68002B01D1012341E07B6893F83D3065
:101F7C00DBB2002B06D17B68002283F83C2078680A
:101F8C00FFF75AF87B68022283F83D207B681A68B9
:101F9C007B6804331946104600F056FA7B68012220
:101FAC0083F846207B68012283F83E207B6801225F
:101FBC0083F83F207B68012283F840207B68012254
:101FCC0083F841207B68012283F842207B68012240
:101FDC0083F843207B68012283F844207B6801222C
:101FEC0083F845207B68012283F83D2000231846A6
:101FFC000837BD4680BD000080B485B000AF786066
:10200C007B6893F83D30DBB2012B01D0012335E026
:10201C007B68022283F83D207B681B68DA687B684A
:10202C001B6842F00102DA607B681B68164A934217
:10203C0009D07B681B68B3F1804F04D07B681B68A8
:10204C00124A934211D17B681B689B6803F007030B
:10205C00FB60FB68062B10D07B681B681A687B68DA
:10206C001B6842F001021A6007E07B681B681A6863
:10207C007B681B6842F001021A6000231846143773
:10208C00BD4680BC704700BF002C014000040040DE
:10209C0080B584B000AF78607B681B68DB68FB6040
:1020AC007B681B681B69BB60BB6803F00203002BD9
:1020BC0020D0FB6803F00203002B1BD07B681B684D
:1020CC006FF002021A617B6801221A777B681B6829
:1020DC009B6903F00303002B03D0786800F098F998
:1020EC0005E0786800F08BF9786800F09AF97B6865
:1020FC0000221A77BB6803F00403002B20D0FB6886
:10210C0003F00403002B1BD07B681B686FF00402E8
:10211C001A617B6802221A777B681B689B6903F43F
:10212C004073002B03D0786800F072F905E07868F2
:10213C0000F065F9786800F074F97B6800221A7772
:10214C00BB6803F00803002B20D0FB6803F00803E6
:10215C00002B1BD07B681B686FF008021A617B6830
:10216C0004221A777B681B68DB6903F00303002BDE
:10217C0003D0786800F04CF905E0786800F03FF97E
:10218C00786800F04EF97B6800221A77BB6803F080
:10219C001003002B20D0FB6803F01003002B1BD086
:1021AC007B681B686FF010021A617B6808221A7733
:1021BC007B681B68DB6903F44073002B03D07868E1
:1021CC0000F026F905E0786800F019F9786800F05D
:1021DC0028F97B6800221A77BB6803F00103002BF7
:1021EC000CD0FB6803F00103002B07D07B681B6845
:1021FC006FF001021A617868FEF7F4FDBB6803F01A
:10220C008003002B0CD0FB6803F08003002B07D05D
:10221C007B681B686FF080021A61786800F06FFAB7
:10222C00BB6803F04003002B0CD0FB6803F04003A9
:10223C00002B07D07B681B686FF040021A6178682E
:10224C0000F0F8F8BB6803F02003002B0CD0FB68FF
:10225C0003F02003002B07D07B681B686FF0200273
:10226C001A61786800F042FA00BF1037BD4680BD95
:10227C0080B584B000AF786039600023FB737B6855
:10228C0093F83C30012B01D10223B4E07B6801228E
:10229C0083F83C207B68022283F83D207B681B6816
:1022AC009B68BB60BB6823F07703BB60BB6823F4FF
:1022BC007F43BB607B681B68BA689A603B681B688D
:1022CC00B3F5005F3ED0B3F5005F00F28780B3F545
:1022DC00805F00F08680B3F5805F7FD8702B1AD0BA
:1022EC00702B7BD8602B50D0602B77D8502B3CD0E8
:1022FC00502B73D8402B58D0402B6FD8302B64D038
:10230C00302B6BD8202B60D0202B67D8002B5CD0C7
:10231C00102B5AD062E07B6818683B6899683B6860
:10232C005A683B68DB6800F06AF97B681B689B683D
:10233C00BB60BB6843F07703BB607B681B68BA6803
:10234C009A604FE07B6818683B6899683B685A68EC
:10235C003B68DB6800F053F97B681B689A687B6804
:10236C001B6842F480429A603CE07B6818683B68CA
:10237C0059683B68DB681A4600F0CAF87B681B6832
:10238C005021184600F021F92CE07B6818683B6856
:10239C0059683B68DB681A4600F0E8F87B681B68F4
:1023AC006021184600F011F91CE07B6818683B6846
:1023BC0059683B68DB681A4600F0AAF87B681B6812
:1023CC004021184600F001F90CE07B681A683B6864
:1023DC001B681946104600F0F8F803E00123FB7364
:1023EC0000E000BF7B68012283F83D207B6800225F
:1023FC0083F83C20FB7B18461037BD4680BD80B46B
:10240C0083B000AF786000BF0C37BD4680BC70470E
:10241C0080B483B000AF786000BF0C37BD4680BC81
:10242C00704780B483B000AF786000BF0C37BD46F6
:10243C0080BC704780B483B000AF786000BF0C37AD
:10244C00BD4680BC7047000080B485B000AF78609A
:10245C0039607B681B68FB607B682B4A934207D012
:10246C007B68B3F1804F03D07B68284A934208D134
:10247C00FB6823F07003FB603B685B68FA681343EE
:10248C00FB607B68204A934207D07B68B3F1804F96
:10249C0003D07B681D4A934208D1FB6823F4407338
:1024AC00FB603B68DB68FA681343FB60FB6823F056
:1024BC0080023B685B691343FB607B68FA681A60B7
:1024CC003B689A687B68DA623B681A687B689A6238
:1024DC007B680D4A934203D13B681A697B681A6387
:1024EC007B6801225A617B681B6903F00103002B96
:1024FC0005D07B681B6923F001027B681A6100BF61
:10250C001437BD4680BC7047002C014000040040CD
:10251C0080B487B000AFF860B9607A60FB681B6A62
:10252C007B61FB681B6A23F00102FB681A62FB6883
:10253C009B693B613B6923F0F0033B617B681B01AA
:10254C003A6913433B617B6923F00A037B617A6927
:10255C00BB6813437B61FB683A699A61FB687A69D3
:10256C001A6200BF1C37BD4680BC704780B487B070
:10257C0000AFF860B9607A60FB681B6A7B61FB682E
:10258C001B6A23F01002FB681A62FB689B693B61B3
:10259C003B6923F470433B617B681B033A6913432B
:1025AC003B617B6923F0A0037B61BB681B017A69EB
:1025BC0013437B61FB683A699A61FB687A691A621A
:1025CC0000BF1C37BD4680BC704780B485B000AFDF
:1025DC00786039607B689B68FB60FB6823F0700354
:1025EC00FB603A68FB68134343F00703FB607B68AE
:1025FC00FA689A6000BF1437BD4680BC704780B43F
:10260C0087B000AFF860B9607A603B60FB689B688C
:10261C007B617B6923F47F437B613B681A027B6897
:10262C001A43BB6813437A6913437B61FB687A696D
:10263C009A6000BF1C37BD4680BC704780B485B023
:10264C0000AF786039607B6893F83C30012B01D186
:10265C00022341E07B68012283F83C207B68022244
:10266C0083F83D207B681B685B68FB607B681B689C
:10267C009B68BB60FB6823F07003FB603B681B68C6
:10268C00FA681343FB607B681B68FA685A607B68C6
:10269C001B68144A934209D07B681B68B3F1804FC6
:1026AC0004D07B681B68104A93420CD1BB6823F0A2
:1026BC008003BB603B685B68BA681343BB607B6894
:1026CC001B68BA689A607B68012283F83D207B689E
:1026DC00002283F83C20002318461437BD4680BCEA
:1026EC00704700BF002C01400004004080B483B050
:1026FC0000AF786000BF0C37BD4680BC704780B41B
:10270C0083B000AF786000BF0C37BD4680BC70470B
:10271C0070B500260C4D0D4C641BA410A64209D1BB
:10272C0000F022F800260A4D0A4C641BA410A642A5
:10273C0005D170BD55F8043B98470136EEE755F8C6
:10274C00043B98470136F2E7B0270008B027000891
:10275C00B0270008B427000803460244934200D176
:10276C00704703F8011BF9E7F8B500BFF8BC08BCCB
:10277C009E467047F8B500BFF8BC08BC9E46704733
:10278C000000000000000000010203040607080915
:10279C0002030405060708090A0B0C0D0E0F101096
:0427AC000102000026
:0427B00031010008EB
:0427B4000D0100080B
:1027B800010000000100000001000000010000000D
:1027C80001000000010000000100000001000000FD
:1027D80001000000010000000100000001000000ED
:1027E800C8000000C8000000C800000000127A00FD
:0827F8001000000001000000C8
:04000005080010FDE2
:00000001FF
