:020000040800F2
:1000000000280020D11700086117000867170008B2
:100010006D1700087317000879170008000000002A
:100020000000000000000000000000007F17000832
:100030008B1700080000000097170008A31700089E
:1000400019180008191800081918000819180008CC
:1000500019180008191800081918000819180008BC
:1000600019180008191800081918000819180008AC
:10007000191800081918000819180008191800089C
:10008000191800081918000819180008191800088C
:10009000191800081918000819180008191800087C
:1000A000191800081918000819180008191800086C
:1000B000B1170008191800080000000019180008FE
:1000C00019180008000000000000000019180008BE
:1000D00000000000191800081918000800000000AE
:1000E0001918000819180008191800080000000065
:1000F0000000000000000000000000000000000000
:0C01000000000000000000005FF808F1A3
:10010C0010B5054C237833B9044B13B10448AFF345
:10011C0000800123237010BD580000200000000057
:10012C00482E000808B5034B1BB103490348AFF335
:10013C00008008BD000000005C000020482E000874
:10014C0080B400AF034B01221A6000BFBD4680BCD7
:10015C00704700BF7400002080B400AF034B012235
:10016C001A6000BFBD4680BC704700BF78000020FD
:10017C0080B400AF034B01221A6000BFBD4680BCA7
:10018C00704700BF7C00002080B400AF064B1B689A
:10019C00012B04D1044B00221A60012300E0002340
:1001AC001846BD4680BC70477400002080B400AF78
:1001BC00064B1B68012B04D1044B00221A6001234F
:1001CC0000E000231846BD4680BC70477800002034
:1001DC0080B400AF064B1B68012B04D1044B0022EA
:1001EC001A60012300E000231846BD4680BC70470E
:1001FC007C00002080B500AF1F4B1B681F4A1360AA
:10020C001F4B1B681C4A13604FF400711D4801F012
:10021C00E9FD03461A461A4B1A60184B1A68164B1E
:10022C001B689A4225D1144B1A68154B1B689A42CD
:10023C001FD1154B1A68124B1B689A420DD0104BEC
:10024C001B68114A13600E4B1B68002B11D1FFF772
:10025C0077FF0E4BC8221A600BE00C4B1B68013B5E
:10026C000A4A1360094B1B68002B02D1064B012272
:10027C001A6000BF80BD00BF0400002000000020F9
:10028C0008000020000C01400C0000203000002071
:10029C0080B500AF1F4B1B681F4A13601F4B1B68B8
:1002AC001C4A13604FF480611D4801F09BFD03460E
:1002BC001A461A4B1A60184B1A68164B1B689A424E
:1002CC0025D1144B1A68154B1B689A421FD1154B3C
:1002DC001A68124B1B689A420DD0104B1B68114ABE
:1002EC0013600E4B1B68002B11D1FFF735FF0E4B23
:1002FC00C8221A600BE00C4B1B68013B0A4A1360C6
:10030C00094B1B68002B02D1064B01221A6000BF5F
:10031C0080BD00BF14000020100000201800002039
:10032C00000C01401C0000203400002080B500AF00
:10033C001F4B1B681F4A13601F4B1B681C4A136022
:10034C004FF400611D4801F04DFD03461A461A4B4F
:10035C001A60184B1A68164B1B689A4225D1144B1D
:10036C001A68154B1B689A421FD1154B1A68124B11
:10037C001B689A420DD0104B1B68114A13600E4B30
:10038C001B68002B11D1FFF7F3FE0E4BC8221A602D
:10039C000BE00C4B1B68013B0A4A1360094B1B68B2
:1003AC00002B02D1064B01221A6000BF80BD00BF9A
:1003BC00240000202000002028000020000C014018
:1003CC002C0000203800002080B582B000AF78608F
:1003DC007B68092B00F2BC8101A252F823F000BF0C
:1003EC001504000869040008BD0400081105000884
:1003FC0065050008B90500080D060008610600082F
:10040C00B50600080907000800228021D34801F036
:10041C0000FD00224FF48071D04801F0FAFC00225C
:10042C004FF40071CD4801F0F4FC00224FF48061D0
:10043C00CA4801F0EEFC00224FF40061C74801F0FD
:10044C00E8FC00224FF48051C44801F0E2FC012288
:10045C004FF40051C14801F0DCFC7AE1012280210B
:10046C00BE4801F0D6FC00224FF48071BB4801F06D
:10047C00D0FC00224FF40071B84801F0CAFC0122F4
:10048C004FF48061B54801F0C4FC01224FF40061C7
:10049C00B24801F0BEFC01224FF48051AF4801F08C
:1004AC00B8FC01224FF40051AC4801F0B2FC50E111
:1004BC0000228021A94801F0ACFC00224FF480718D
:1004CC00A64801F0A6FC01224FF40071A34801F0EC
:1004DC00A0FC00224FF48061A04801F09AFC00229D
:1004EC004FF400619D4801F094FC01224FF48051BF
:1004FC009A4801F08EFC00224FF40051974801F00D
:10050C0088FC26E100228021944801F082FC002224
:10051C004FF48071914801F07CFC00224FF4007183
:10052C008E4801F076FC00224FF480618B4801F07C
:10053C0070FC01224FF40061884801F06AFC012232
:10054C004FF48051854801F064FC00224FF40051B7
:10055C00824801F05EFCFCE0012280217F4801F022
:10056C0058FC00224FF480717C4801F052FC0022B0
:10057C004FF40071794801F04CFC01224FF480617A
:10058C00764801F046FC01224FF40061734801F0FB
:10059C0040FC00224FF48051704801F03AFC0022DC
:1005AC004FF400516D4801F034FCD2E00022802160
:1005BC006A4801F02EFC01224FF48071674801F06B
:1005CC0028FC00224FF40071644801F022FC002248
:1005DC004FF48061614801F01CFC01224FF4006172
:1005EC005E4801F016FC00224FF480515B4801F08C
:1005FC0010FC00224FF40051584801F00AFCA8E00E
:10060C0000228021554801F004FC01224FF4807136
:10061C00524801F0FEFB00224FF400714F4801F0EC
:10062C00F8FB00224FF480614C4801F0F2FB0022F1
:10063C004FF40061494801F0ECFB00224FF480516B
:10064C00464801F0E6FB00224FF40051434801F00C
:10065C00E0FB7EE000228021404801F0DAFB002222
:10066C004FF480713D4801F0D4FB00224FF400712F
:10067C003A4801F0CEFB01224FF48061374801F07B
:10068C00C8FB01224FF40061344801F0C2FB012287
:10069C004FF48051314801F0BCFB01224FF4005162
:1006AC002E4801F0B6FB54E0002280212B4801F0CB
:1006BC00B0FB00224FF48071284801F0AAFB002205
:1006CC004FF40071254801F0A4FB00224FF4806127
:1006DC00224801F09EFB00224FF400611F4801F0FC
:1006EC0098FB00224FF480511C4801F092FB002231
:1006FC004FF40051194801F08CFB2AE000228021B4
:10070C00164801F086FB00224FF48071134801F06B
:10071C0080FB00224FF40071104801F07AFB00229C
:10072C004FF480610D4801F074FB01224FF400611D
:10073C000A4801F06EFB00224FF48051074801F08B
:10074C0068FB00224FF40051044801F062FB00E00A
:10075C0000BF00BF0837BD4680BD00BF0008014088
:10076C0080B582B000AF78607B68092B00F2808185
:10077C0001A252F823F000BFAD070008F5070008EE
:10078C003D08000885080008CD0800081509000878
:10079C005D090008A5090008ED090008350A0008E4
:1007AC0000220121B54801F034FB00220221B3489C
:1007BC0001F02FFB00220421B04801F02AFB00229B
:1007CC000821AE4801F025FB00221021AB4801F0B6
:1007DC0020FB00222021A94801F01BFB0122402113
:1007EC00A64801F016FB44E101220121A34801F0C7
:1007FC0010FB00220221A14801F00BFB0022042176
:10080C009E4801F006FB012208219C4801F001FBE7
:10081C0001221021994801F0FCFA0122202197486D
:10082C0001F0F7FA01224021944801F0F2FA20E19C
:10083C0000220121914801F0ECFA002202218F489C
:10084C0001F0E7FA012204218C4801F0E2FA0022BF
:10085C0008218A4801F0DDFA00221021874801F0B6
:10086C00D8FA01222021854801F0D3FA0022402138
:10087C00824801F0CEFAFCE0002201217F4801F011
:10088C00C8FA002202217D4801F0C3FA002204219B
:10089C007A4801F0BEFA00220821784801F0B9FA32
:1008AC0001221021754801F0B4FA0122202173486D
:1008BC0001F0AFFA00224021704801F0AAFAD8E00A
:1008CC00012201216D4801F0A4FA002202216B489B
:1008DC0001F09FFA00220421684801F09AFA0122E3
:1008EC000821664801F095FA01221021634801F0B5
:1008FC0090FA00222021614801F08BFA002240215D
:10090C005E4801F086FAB4E0002201215B4801F058
:10091C0080FA01220221594801F07BFA00220421BD
:10092C00564801F076FA00220821544801F071FA79
:10093C0001221021514801F06CFA002220214F486D
:10094C0001F067FA002240214C4801F062FA90E075
:10095C0000220121494801F05CFA0122022147489A
:10096C0001F057FA00220421444801F052FA002207
:10097C000821424801F04DFA002210213F4801F0B5
:10098C0048FA002220213D4801F043FA0022402180
:10099C003A4801F03EFA6CE000220121374801F0A0
:1009AC0038FA00220221354801F033FA00220421E2
:1009BC00324801F02EFA01220821304801F029FAC0
:1009CC00012210212D4801F024FA012220212B486C
:1009DC0001F01FFA01224021284801F01AFA48E0E0
:1009EC0000220121254801F014FA0022022123489B
:1009FC0001F00FFA00220421204801F00AFA00222B
:100A0C0008211E4801F005FA002210211B4801F0B4
:100A1C0000FA00222021194801F0FBF900224021A4
:100A2C00164801F0F6F924E000220121134801F0E8
:100A3C00F0F900220221114801F0EBF90022042107
:100A4C000E4801F0E6F9002208210C4801F0E1F90A
:100A5C0001221021094801F0DCF90022202107486D
:100A6C0001F0D7F900224021044801F0D2F900E04E
:100A7C0000BF00BF0837BD4680BD00BF000C014061
:100A8C0080B582B000AF78607B68002B03D07B68A8
:100A9C00012B22D043E000224FF48041224801F088
:100AAC00B8F901224FF400411F4801F0B2F90022BD
:100ABC0080211E4801F0ADF901224FF480511B48F2
:100ACC0001F0A7F91A4B1B681846FFF749FE194BA2
:100ADC001B681846FFF778FC21E001224FF4804197
:100AEC00114801F096F900224FF400410E4801F034
:100AFC0090F9012280210D4801F08BF900224FF46E
:100B0C0080510A4801F085F9094B5B681846FFF7DC
:100B1C0027FE084B5B681846FFF756FC00BF00BF6A
:100B2C000837BD4680BD00BF00080140000C0140E5
:100B3C008C0000208400002080B582B000AF78606B
:100B4C0039607B68092B05DC2E4B00221A602D4A7C
:100B5C007B6853607B68092B16DD7B682A4A82FB15
:100B6C0003129210DB17D31A264A13607968264BAE
:100B7C0083FB01239A10CB17D21A13469B00134404
:100B8C005B00CA1A1F4B5A603B68092B05DC1F4BD4
:100B9C0000221A601D4A3B6853603B68092B16DD26
:100BAC003B68194A82FB03129210DB17D31A174ABF
:100BBC0013603968144B83FB01239A10CB17D21A9C
:100BCC0013469B0013445B00CA1A104B5A60104B1F
:100BDC001B68012B11D10F4B1B685A1C0D490A6065
:100BEC001846FFF74DFF0B4B1B68012B02DD094B21
:100BFC0000221A60192000F075FC00BF0837BD46B2
:100C0C0080BD00BF84000020676666668C000020F3
:100C1C00A80000208000002080B500AF094B1B68A5
:100C2C00012B0CD1084B1B68013B074A1360074B87
:100C3C001B68013B054A1360642000F08FFC00BF69
:100C4C0080BD00BFB400002094000020980000205C
:100C5C0080B500AF514B1B68013B032B00F2948015
:100C6C0001A252F823F000BF850C0008C30C000849
:100C7C00090D00084F0D000801220221484801F01F
:100C8C00C8F801220421464801F0C3F801220821CA
:100C9C00434801F0BEF8414B02221A60414B1B68DD
:100CAC00414A13603F4B1B68642202FB03F3184656
:100CBC0000F02CFC6FE000220221394801F0A9F869
:100CCC0001220421364801F0A4F8012208213448FD
:100CDC0001F09FF8354B1B68012B57D12F4B042289
:100CEC001A60334B1B68304A1360314B1B6864220B
:100CFC0002FB03F3184600F009FC47E00122022135
:100D0C00274801F086F800220421254801F081F8DB
:100D1C0001220821224801F07CF8244B1B68012B8E
:100D2C0036D11E4B02221A601E4B1B681E4A1360E2
:100D3C001C4B1B68642202FB03F3184600F0E6FB15
:100D4C0026E001220221164801F063F80122042159
:100D5C00134801F05EF800220821114801F059F8FF
:100D6C00124B1B68012B15D10C4B03221A60114B33
:100D7C001B680D4A13600F4B1B68642202FB03F3C4
:100D8C00184600F0C3FB05E000BF04E000BF02E022
:100D9C0000BF00E000BF00BF80BD00BF9C00002072
:100DAC00000801403C00002094000020AC00002012
:100DBC00440000204000002080B500AF544B1B685D
:100DCC00013B062B00F29A8001A252F823F000BFDF
:100DDC00F90D0008090F0008090F0008090F000899
:100DEC00370E00087D0E0008C30E000801221021EA
:100DFC00484801F00EF801222021464801F009F87C
:100E0C0001224021434801F004F8414B07221A60AB
:100E1C00414B1B68414A13603F4B1B68642202FB29
:100E2C0003F3184600F086FB6FE0002210213948CE
:100E3C0000F0EFFF01222021364800F0EAFF0122EA
:100E4C004021344800F0E5FF354B1B68012B57D18E
:100E5C002F4B07221A60304B1B68304A13602E4B05
:100E6C001B68642202FB03F3184600F063FB47E0A7
:100E7C0001221021274800F0CCFF00222021254818
:100E8C0000F0C7FF01224021224800F0C2FF244B92
:100E9C001B68012B36D11E4B05221A60214B1B6897
:100EAC001E4A13601F4B1B68642202FB03F3184697
:100EBC0000F040FB26E001221021164800F0A9FFAB
:100ECC0001222021134800F0A4FF002240211148E8
:100EDC0000F09FFF124B1B68012B15D10C4B062207
:100EEC001A60114B1B680D4A13600F4B1B68642270
:100EFC0002FB03F3184600F01DFB05E000BF04E005
:100F0C0000BF02E000BF00E000BF00BF80BD00BF1B
:100F1C00A0000020000801404400002098000020A0
:100F2C00B00000203C0000204000002080B500AF45
:100F3C0000F06EFC00F034F800F0BAF800F06CF839
:100F4C000E4801F0C3FB0E4B01221A600D4B01221F
:100F5C001A600D4B01221A600C4B01221A600C4BCB
:100F6C0001221A600B4B01221A600B4B01221A60F2
:100F7C000A4B01221A6000F0DBF9FCE7D8000020D4
:100F8C009C000020A0000020A8000020AC00002045
:100F9C00B0000020B4000020B8000020BC000020ED
:100FAC0080B590B000AF07F1180328220021184635
:100FBC0001F03CFF3B1D00221A605A609A60DA6017
:100FCC001A610223BB610123BB621023FB62002365
:100FDC007B6307F11803184600F04CFF0346002B07
:100FEC0001D000F0D9F80F237B600023BB600023F5
:100FFC00FB6000233B6100237B613B1D00211846F5
:10100C0001F0B8F90346002B01D000F0C5F800BF81
:10101C004037BD4680BD000080B586B000AF07F1FB
:10102C00080300221A605A609A60DA603B4600227C
:10103C001A605A601D4B4FF080421A601B4B41F6F0
:10104C003F725A60194B00229A60184B0922DA60E1
:10105C00164B00221A61154B00229A61134801F0BD
:10106C00E5FA0346002B01D000F096F84FF48053BC
:10107C00BB6007F1080319460C4801F063FC0346FA
:10108C00002B01D000F088F800233B6000237B602C
:10109C003B461946054801F03BFE0346002B01D0A8
:1010AC0000F07AF800BF1837BD4680BDD80000208C
:1010BC0080B586B000AF07F1080300221A605A60B1
:1010CC009A60DA60294B9B69284A43F004039361C8
:1010DC00264B9B6903F004037B607B68234B9B6965
:1010EC00224A43F008039361204B9B6903F00803E9
:1010FC003B603B6800224FF6FE711D4800F089FEF4
:10110C00002241F2FF011B4800F083FE4FF6FE73F4
:10111C00BB600123FB6000233B6102237B6107F171
:10112C0008031946124800F0E3FC41F2FF03BB60D0
:10113C000123FB6000233B6102237B6107F1080361
:10114C0019460C4800F0D4FC4FF46063BB600023DC
:10115C00FB6001233B6107F108031946054800F0C9
:10116C00C7FC00BF1837BD4680BD00BF0010024051
:10117C0000080140000C014080B582B000AF7860DF
:10118C0000F014FAFFF736F8FFF782F8FFF7CEF805
:10119C0000BF0837BD4680BD80B400AF72B600BF3B
:1011AC00FEE7000080B500AFFFF752FDFFF704FE2D
:1011BC00054B1B68054A126811461846FFF7BCFC24
:1011CC00FFF72AFD00BF80BD94000020980000208E
:1011DC0080B500AF104B1B68104A136000F0D4F8B8
:1011EC00FEF7E4FF0346002B0BD00C4B1B680133BE
:1011FC000A4A1360094B1B68632B02DD064B002265
:10120C001A60FEF7E5FF0346002B03D0034B1B6867
:10121C00014A136000BF80BD3C000020A4000020E8
:10122C0080B500AF104B1B68104A136000F0E6F855
:10123C00FEF7BCFF0346002B0BD00C4B1B68013395
:10124C000A4A1360094B1B68632B02DD064B002214
:10125C001A60FEF7BDFF0346002B03D0034B1B683F
:10126C00014A136000BF80BD40000020A400002094
:10127C0080B500AF104B1B68104A136000F0F8F8F3
:10128C00FEF794FF0346002B0BD00C4B1B6801336D
:10129C000A4A1360094B1B68632B02DD064B0022C4
:1012AC001A60FEF795FF0346002B03D0034B1B6817
:1012BC00014A136000BF80BD44000020A400002040
:1012CC0080B500AFFEF760FF0346002B23D0134B15
:1012DC001B680133114A1360104B1B68042B1ADD79
:1012EC000E4B01221A600E4B1B68642202FB03F3A7
:1012FC00184600F00BF90B4B1B68642202FB03F33E
:10130C00184600F017F9064B1B68074A1360054B8B
:10131C001B68064A136000BF80BD00BF4800002058
:10132C003C00002044000020940000209800002085
:10133C0080B500AF134B1B68013B032B1ED801A2D9
:10134C0052F823F0611300086B13000875130008A2
:10135C007F130008FFF726FFFFF7B2FF0FE0FFF740
:10136C0037FFFFF7ADFF0AE0FFF75AFFFFF7A8FFC3
:10137C0005E0FFF77DFFFFF7A3FF00E000BF00BF14
:10138C0080BD00BF4800002080B582B000AF0223B2
:10139C007B60174B1B683B6001220421154800F051
:1013AC0038FD01220821134800F033FD01222021D1
:1013BC00104800F02EFD012240210E4800F029FDBE
:1013CC0039687868FFF7B8FB0B4B1B68012B0AD107
:1013DC000221084800F035FD1021064800F031FDCF
:1013EC00322000F0CFF800BF0837BD4680BD00BFEB
:1013FC00A400002000080140BC00002080B582B091
:10140C0000AF03237B60174B1B683B60012202215A
:10141C00154800F0FEFC01220821134800F0F9FCED
:10142C0001221021104800F0F4FC012240210E484A
:10143C0000F0EFFC39687868FFF77EFB0B4B1B68FC
:10144C00012B0AD10421084800F0FBFC202106489E
:10145C0000F0F7FC322000F095F800BF0837BD46CD
:10146C0080BD00BFA400002000080140BC0000208B
:10147C0080B582B000AF04237B60174B1B683B60C8
:10148C0001220421154800F0C4FC0122022113485A
:10149C0000F0BFFC01222021104800F0BAFC012210
:1014AC0010210E4800F0B5FC39687868FFF744FB52
:1014BC000B4B1B68012B0AD10821084800F0C1FC1A
:1014CC004021064800F0BDFC322000F05BF800BF64
:1014DC000837BD4680BD00BFA400002000080140B5
:1014EC00BC00002080B483B000AF7860054A7B68F4
:1014FC001360054B00221A6000BF0C37BD4680BC40
:10150C00704700BFC0000020A800002080B483B04A
:10151C0000AF7860054A7B681360054B00221A60A7
:10152C0000BF0C37BD4680BC704700BFC400002014
:10153C00AC00002080B483B000AF7860054A7B68B3
:10154C001360054B00221A6000BF0C37BD4680BCEF
:10155C00704700BFC8000020B000002080B483B0EA
:10156C0000AF7860054A7B681360054B00221A6057
:10157C0000BF0C37BD4680BC704700BFCC000020BC
:10158C00B400002080B483B000AF7860054A7B685B
:10159C001360054B00221A6000BF0C37BD4680BC9F
:1015AC00704700BFD4000020BC00002080B400AF06
:1015BC00314B1B68002B0BDD2F4B1B68013B2E4A5C
:1015CC0013602D4B1B68002B02DC2C4B01221A6084
:1015DC002B4B1B68002B0BDD294B1B68013B284A4E
:1015EC001360274B1B68002B02DC264B01221A6070
:1015FC00254B1B68002B0BDD234B1B68013B224A40
:10160C001360214B1B68002B02DC204B01221A605B
:10161C001F4B1B68002B0BDD1D4B1B68013B1C4A31
:10162C0013601B4B1B68002B02DC1A4B01221A6047
:10163C00194B1B68002B0BDD174B1B68013B164A23
:10164C001360154B1B68002B02DC144B01221A6033
:10165C00134B1B68002B0BDD114B1B68013B104A15
:10166C0013600F4B1B68002B02DC0E4B01221A601F
:10167C0000BFBD4680BC7047C0000020A800002001
:10168C00C4000020AC000020C8000020B0000020E6
:10169C00CC000020B4000020D0000020B8000020B6
:1016AC00D4000020BC00002080B485B000AF154BE6
:1016BC009B69144A43F001039361124B9B6903F03D
:1016CC000103BB60BB680F4BDB690E4A43F08053D0
:1016DC00D3610C4BDB6903F080537B607B680A4B56
:1016EC005B68FB60FB6823F0E063FB60FB6843F026
:1016FC008063FB60044AFB68536000BF1437BD462F
:10170C0080BC7047001002400000014080B584B0DE
:10171C0000AF78607B681B68B3F1804F13D10C4B22
:10172C00DB690B4A43F00103D361094BDB6903F01E
:10173C000103FB60FB68002200211C2000F0A1F9D2
:10174C001C2000F0BAF900BF1037BD4680BD00BFA9
:10175C000010024080B400AFFEE780B400AFFEE79B
:10176C0080B400AFFEE780B400AFFEE780B400AFFA
:10177C00FEE780B400AF00BFBD4680BC704780B4AC
:10178C0000AF00BFBD4680BC704780B400AF00BF47
:10179C00BD4680BC704780B500AF00F07FF800BF3D
:1017AC0080BD000080B500AF024800F0DBFF00BF39
:1017BC0080BD00BFD800002080B400AF00BFBD4684
:1017CC0080BC7047FFF7F8FF0B480C490C4A00230C
:1017DC0002E0D458C4500433C4188C42F9D3094ADB
:1017EC00094C002301E013600432A242FBD301F048
:1017FC00F9FAFFF79BFB704700000020580000200F
:10180C008C2E00085800002024010020FEE7000068
:10181C0080B500AF084B1B68074A43F010031360F8
:10182C00032000F023F90F2000F008F8FFF73CFF2D
:10183C000023184680BD00BF0020024080B582B056
:10184C0000AF7860124B1A68124B1B7819464FF494
:10185C007A73B3FBF1F3B2FBF3F3184600F03BF9E8
:10186C000346002B01D001230EE07B680F2B0AD816
:10187C00002279684FF0FF3000F003F9064A7B68CC
:10188C001360002300E0012318460837BD4680BDD5
:10189C004C000020540000205000002080B400AF09
:1018AC00054B1B781A46054B1B681344034A1360FF
:1018BC0000BFBD4680BC70475400002020010020B2
:1018CC0080B400AF024B1B681846BD4680BC704705
:1018DC002001002080B485B000AF78607B6803F0F5
:1018EC000703FB600C4BDB68BB60BA684FF6FF0369
:1018FC001340BB60FB681A02BB68134343F0BF6321
:10190C0043F40033BB60044ABB68D36000BF143798
:10191C00BD4680BC704700BF00ED00E080B400AF56
:10192C00044BDB681B0A03F007031846BD4680BC5A
:10193C00704700BF00ED00E080B483B000AF0346F9
:10194C00FB7197F90730002B0BDBFB7903F01F02BF
:10195C00064997F907305B09012000FA02F241F8B9
:10196C00232000BF0C37BD4680BC704700E100E06F
:10197C0080B483B000AF03463960FB7197F9073030
:10198C00002B0ADB3B68DAB20C4997F907301201DD
:10199C00D2B20B4483F800230AE03B68DAB2084960
:1019AC00FB7903F00F03043B1201D2B20B441A76FD
:1019BC0000BF0C37BD4680BC704700BF00E100E0A3
:1019CC0000ED00E080B489B000AFF860B9607A60D7
:1019DC00FB6803F00703FB61FB69C3F10703042BEE
:1019EC0028BF0423BB61FB690433062B02D9FB69B6
:1019FC00033B00E000237B614FF0FF32BB6902FA2E
:101A0C0003F3DA43BB681A407B699A404FF0FF310D
:101A1C007B6901FA03F3D9437B680B4013431846E7
:101A2C002437BD4680BC704780B582B000AF78606B
:101A3C007B68013BB3F1807F01D301230FE00A4A9D
:101A4C007B68013B53600F214FF0FF30FFF790FF95
:101A5C00054B00229A60044B07221A60002318469B
:101A6C000837BD4680BD00BF10E000E080B582B0F5
:101A7C0000AF78607868FFF72DFF00BF0837BD46D0
:101A8C0080BD80B586B000AF0346B9607A60FB7349
:101A9C0000237B61FFF742FF78617A68B968786947
:101AAC00FFF790FF024697F90F3011461846FFF7E3
:101ABC005FFF00BF1837BD4680BD80B582B000AF58
:101ACC000346FB7197F907301846FFF735FF00BF47
:101ADC000837BD4680BD80B582B000AF78607868AD
:101AEC00FFF7A2FF034618460837BD4680BD00002D
:101AFC0080B48BB000AF7860396000237B62002328
:101B0C003B6248E101227B6A02FA03F3FB613B680A
:101B1C001B68FA691340BB61BA69FB699A4240F0D1
:101B2C0037813B685B68A34A93425ED0A14A9342DB
:101B3C0075D8A14A934258D09F4A93426FD89F4A76
:101B4C00934252D09D4A934269D89D4A93424CD0BD
:101B5C009B4A934263D89B4A934246D0994A9342FC
:101B6C005DD8122B2AD8122B59D801A252F823F087
:101B7C00F71B0008D11B0008E31B0008251C0008FC
:101B8C002B1C00082B1C00082B1C00082B1C00080D
:101B9C002B1C00082B1C00082B1C00082B1C0008FD
:101BAC002B1C00082B1C00082B1C00082B1C0008ED
:101BBC002B1C0008D91B0008ED1B0008824A93421D
:101BCC0013D02CE03B68DB683B6229E03B68DB68A8
:101BDC0004333B6224E03B68DB6808333B621FE064
:101BEC003B68DB680C333B621AE03B689B68002B5C
:101BFC0002D104233B6213E03B689B68012B05D1A7
:101C0C0008233B627B68FA691A6109E008233B628E
:101C1C007B68FA695A6103E000233B6200E000BF75
:101C2C00BB69FF2B01D87B6801E07B6804337B61C7
:101C3C00BB69FF2B02D87B6A9B0002E07B6A083BE6
:101C4C009B003B617B691A680F213B6901FA03F326
:101C5C00DB431A40396A3B6901FA03F31A437B6987
:101C6C001A603B685B6803F08053002B00F0908097
:101C7C00564B9B69554A43F001039361534B9B6947
:101C8C0003F00103BB60BB68514A7B6A9B080233BB
:101C9C0052F82330FB607B6A03F003039B000F2296
:101CAC0002FA03F3DB43FA681340FB607B68494A92
:101CBC0093420DD07B68484A934207D07B68474AD1
:101CCC00934201D1022304E0032302E0012300E04C
:101CDC0000237A6A02F0030292009340FA681343DD
:101CEC00FB603B497B6A9B080233FA6841F823206E
:101CFC003B685B6803F48013002B06D0384B9A6862
:101D0C003749BB6913438B6006E0354B9A68BB6956
:101D1C00DB43334913408B603B685B6803F400136F
:101D2C00002B06D02E4BDA682D49BB691343CB60D0
:101D3C0006E02B4BDA68BB69DB4329491340CB60C7
:101D4C003B685B6803F40033002B06D0244B5A68C5
:101D5C002349BB6913434B6006E0214B5A68BB69AE
:101D6C00DB431F4913404B603B685B6803F48033D3
:101D7C00002B06D01A4B1A681949BB6913430B6028
:101D8C0006E0174B1A68BB69DB43154913400B601F
:101D9C007B6A01337B623B681A687B6A22FA03F325
:101DAC00002B7FF4AFAE00BF00BF2C37BD4680BC0C
:101DBC00704700BF000032100000311000002210EC
:101DCC000000211000001210000011100010024041
:101DDC000000014000080140000C014000100140CF
:101DEC000004014080B485B000AF78600B467B8066
:101DFC007B689A687B881340002B02D00123FB730D
:101E0C0001E00023FB73FB7B18461437BD4680BCF6
:101E1C00704780B483B000AF78600B467B8013466C
:101E2C007B707B78002B03D07A887B681A6103E087
:101E3C007B881A047B681A6100BF0C37BD4680BCD6
:101E4C00704780B485B000AF78600B467B807B68B0
:101E5C00DB68FB607A88FB6813401A04FB68D94383
:101E6C007B880B401A437B681A6100BF1437BD4650
:101E7C0080BC704780B586B000AF78607B68002B63
:101E8C0001D101236CE27B681B6803F00103002B7A
:101E9C0000F08780924B5B6803F00C03042B0CD092
:101EAC008F4B5B6803F00C03082B12D18C4B5B68D7
:101EBC0003F48033B3F5803F0BD1894B1B6803F4DB
:101ECC000033002B6CD07B685B68002B68D101233E
:101EDC0046E27B685B68B3F5803F06D1804B1B689C
:101EEC007F4A43F4803313602EE07B685B68002BE1
:101EFC000CD17B4B1B687A4A23F480331360784BEC
:101F0C001B68774A23F4802313601DE07B685B68B1
:101F1C00B3F5A02F0CD1724B1B68714A43F480238C
:101F2C0013606F4B1B686E4A43F4803313600BE0F5
:101F3C006B4B1B686A4A23F480331360684B1B6835
:101F4C00674A23F4802313607B685B68002B13D0F3
:101F5C00FFF7B6FC386108E0FFF7B2FC02463B69BC
:101F6C00D31A642B01D90323FAE15D4B1B6803F4EC
:101F7C000033002BF0D014E0FFF7A2FC386108E02E
:101F8C00FFF79EFC02463B69D31A642B01D903234D
:101F9C00E6E1534B1B6803F40033002BF0D100E057
:101FAC0000BF7B681B6803F00203002B63D04C4B13
:101FBC005B6803F00C03002B0BD0494B5B6803F000
:101FCC000C03082B1CD1464B5B6803F48033002BAD
:101FDC0016D1434B1B6803F00203002B05D07B6822
:101FEC001B69012B01D00123BAE13D4B1B6823F087
:101FFC00F8027B685B69DB00394913430B603AE0FC
:10200C007B681B69002B20D0364B01221A60FFF72E
:10201C0057FC386108E0FFF753FC02463B69D31AC2
:10202C00022B01D903239BE12D4B1B6803F0020308
:10203C00002BF0D02A4B1B6823F0F8027B685B69FD
:10204C00DB00274913430B6015E0264B00221A6076
:10205C00FFF736FC386108E0FFF732FC02463B69BB
:10206C00D31A022B01D903237AE11D4B1B6803F011
:10207C000203002BF0D17B681B6803F00803002BD4
:10208C003AD07B689B69002B19D0174B01221A6040
:10209C00FFF716FC386108E0FFF712FC02463B69BB
:1020AC00D31A022B01D903235AE10D4B5B6A03F0BF
:1020BC000203002BF0D0012000F09AFA1CE00A4B2E
:1020CC0000221A60FFF7FCFB38610FE0FFF7F8FB0A
:1020DC0002463B69D31A022B08D9032340E100BF07
:1020EC000010024000004242800442429E4B5B6A58
:1020FC0003F00203002BE9D17B681B6803F0040397
:10210C00002B00F0A6800023FB75974BDB6903F0D6
:10211C008053002B0DD1944BDB69934A43F08053D1
:10212C00D361914BDB6903F08053BB60BB68012327
:10213C00FB758E4B1B6803F48073002B18D18B4BF3
:10214C001B688A4A43F480731360FFF7B9FB38614C
:10215C0008E0FFF7B5FB02463B69D31A642B01D9A3
:10216C000323FDE0814B1B6803F48073002BF0D03C
:10217C007B68DB68012B06D17B4B1B6A7A4A43F0E8
:10218C00010313622DE07B68DB68002B0CD1764BCE
:10219C001B6A754A23F001031362734B1B6A724A64
:1021AC0023F0040313621CE07B68DB68052B0CD165
:1021BC006D4B1B6A6C4A43F0040313626A4B1B6A37
:1021CC00694A43F0010313620BE0674B1B6A664AD2
:1021DC0023F001031362644B1B6A634A23F004036C
:1021EC0013627B68DB68002B15D0FFF769FB386145
:1021FC000AE0FFF765FB02463B69D31A41F28832CD
:10220C00934201D90323ABE0574B1B6A03F0020343
:10221C00002BEED014E0FFF753FB38610AE0FFF718
:10222C004FFB02463B69D31A41F28832934201D9E3
:10223C00032395E04C4B1B6A03F00203002BEED1F9
:10224C00FB7D012B05D1484BDB69474A23F08053BA
:10225C00D3617B68DB69002B00F08180424B5B68AB
:10226C0003F00C03082B61D07B68DB69022B46D191
:10227C003F4B00221A60FFF723FB386108E0FFF7A1
:10228C001FFB02463B69D31A022B01D9032367E0DB
:10229C00354B1B6803F00073002BF0D17B681B6A75
:1022AC00B3F5803F08D1304B5B6823F400327B6878
:1022BC009B682D4913434B602B4B5B6823F47412C2
:1022CC007B68196A7B685B6A0B43274913434B6035
:1022DC00274B01221A60FFF7F3FA386108E0FFF789
:1022EC00EFFA02463B69D31A022B01D9032337E0DC
:1022FC001D4B1B6803F00073002BF0D02FE01C4B20
:10230C0000221A60FFF7DCFA386108E0FFF7D8FA10
:10231C0002463B69D31A022B01D9032320E0124B4E
:10232C001B6803F00073002BF0D118E07B68DB69AD
:10233C00012B01D1012313E00B4B5B68FB60FB68A5
:10234C0003F480327B681B6A9A4206D1FB6803F463
:10235C0070127B685B6A9A4201D0012300E0002373
:10236C0018461837BD4680BD001002400070004072
:10237C006000424280B584B000AF786039607B6801
:10238C00002B01D10123D0E06A4B1B6803F007033B
:10239C003A689A4210D9674B1B6823F007026549CB
:1023AC003B6813430B60634B1B6803F007033A68ED
:1023BC009A4201D00123B8E07B681B6803F002034A
:1023CC00002B20D07B681B6803F00403002B05D086
:1023DC00594B5B68584A43F4E06353607B681B6855
:1023EC0003F00803002B05D0534B5B68524A43F4AF
:1023FC0060535360504B5B6823F0F0027B689B6822
:10240C004D4913434B607B681B6803F00103002BA1
:10241C0040D07B685B68012B07D1474B1B6803F4EA
:10242C000033002B15D101237FE07B685B68022B06
:10243C0007D1414B1B6803F00073002B09D101231A
:10244C0073E03D4B1B6803F00203002B01D1012309
:10245C006BE0394B5B6823F003027B685B683649A1
:10246C0013434B60FFF72CFAF8600AE0FFF728FAE9
:10247C000246FB68D31A41F28832934201D90323F6
:10248C0053E02D4B5B6803F00C027B685B689B0090
:10249C009A42EBD1274B1B6803F007033A689A4228
:1024AC0010D2244B1B6823F0070222493B681343CC
:1024BC000B60204B1B6803F007033A689A4201D06B
:1024CC00012332E07B681B6803F00403002B08D067
:1024DC00194B5B6823F4E0627B68DB681649134395
:1024EC004B607B681B6803F00803002B09D0124B70
:1024FC005B6823F460527B681B69DB000E49134355
:10250C004B6000F021F802460B4B5B681B0903F093
:10251C000F030A49CB5C22FA03F3094A1360094BF7
:10252C001B681846FFF78AF9002318461037BD467A
:10253C0080BD00BF0020024000100240602E000849
:10254C004C0000205000002080B487B000AF002366
:10255C00FB600023BB6000237B6100237B600023B6
:10256C003B611E4B5B68FB60FB6803F00C03042BA8
:10257C0002D0082B03D027E0194B3B6127E0FB6806
:10258C009B0C03F00F03174AD35C7B60FB6803F4CE
:10259C008033002B10D0114B5B685B0C03F00103F4
:1025AC00114AD35CBB607B680D4A02FB03F2BB682B
:1025BC00B2FBF3F37B6104E07B680C4A02FB03F390
:1025CC007B617B693B6102E0054B3B6100BF3B6972
:1025DC0018461C37BD4680BC704700BF0010024037
:1025EC0000127A00702E0008802E000800093D00B1
:1025FC0080B485B000AF78600A4B1B680A4AA2FB16
:10260C0003235B0A7A6802FB03F3FB6000BFFB68E1
:10261C005A1EFA60002BF9D100BF00BF1437BD461B
:10262C0080BC70474C000020D34D621080B582B046
:10263C0000AF78607B68002B01D1012341E07B68FF
:10264C0093F83D30DBB2002B06D17B68002283F877
:10265C003C207868FFF75AF87B68022283F83D200B
:10266C007B681A687B6804331946104600F056FAEA
:10267C007B68012283F846207B68012283F83E2088
:10268C007B68012283F83F207B68012283F840207D
:10269C007B68012283F841207B68012283F8422069
:1026AC007B68012283F843207B68012283F8442055
:1026BC007B68012283F845207B68012283F83D204A
:1026CC00002318460837BD4680BD000080B485B095
:1026DC0000AF78607B6893F83D30DBB2012B01D002
:1026EC00012335E07B68022283F83D207B681B6860
:1026FC00DA687B681B6842F00102DA607B681B6851
:10270C00164A934209D07B681B68B3F1804F04D002
:10271C007B681B68124A934211D17B681B689B68CB
:10272C0003F00703FB60FB68062B10D07B681B686B
:10273C001A687B681B6842F001021A6007E07B682C
:10274C001B681A687B681B6842F001021A60002340
:10275C0018461437BD4680BC704700BF002C0140A2
:10276C000004004080B584B000AF78607B681B68C3
:10277C00DB68FB607B681B681B69BB60BB6803F094
:10278C000203002B20D0FB6803F00203002B1BD0AC
:10279C007B681B686FF002021A617B6801221A7752
:1027AC007B681B689B6903F00303002B03D07868DC
:1027BC0000F098F905E0786800F08BF9786800F083
:1027CC009AF97B6800221A77BB6803F00403002B8C
:1027DC0020D0FB6803F00403002B1BD07B681B6824
:1027EC006FF004021A617B6802221A777B681B68FF
:1027FC009B6903F44073002B03D0786800F072F9E6
:10280C0005E0786800F065F9786800F074F97B6889
:10281C0000221A77BB6803F00803002B20D0FB685A
:10282C0003F00803002B1BD07B681B686FF00802B9
:10283C001A617B6804221A777B681B68DB6903F0DA
:10284C000303002B03D0786800F04CF905E078689E
:10285C0000F03FF9786800F04EF97B6800221A7797
:10286C00BB6803F01003002B20D0FB6803F01003AF
:10287C00002B1BD07B681B686FF010021A617B6801
:10288C0008221A777B681B68DB6903F44073002B02
:10289C0003D0786800F026F905E0786800F019F9A3
:1028AC00786800F028F97B6800221A77BB6803F07F
:1028BC000103002B0CD0FB6803F00103002B07D0A5
:1028CC007B681B686FF001021A617868FEF754FC94
:1028DC00BB6803F08003002B0CD0FB6803F0800373
:1028EC00002B07D07B681B686FF080021A61786838
:1028FC0000F06FFABB6803F04003002B0CD0FB68B0
:10290C0003F04003002B07D07B681B686FF040027C
:10291C001A61786800F0F8F8BB6803F02003002B0C
:10292C000CD0FB6803F02003002B07D07B681B68DE
:10293C006FF020021A61786800F042FA00BF10377D
:10294C00BD4680BD80B584B000AF7860396000238F
:10295C00FB737B6893F83C30012B01D10223B4E06C
:10296C007B68012283F83C207B68022283F83D209F
:10297C007B681B689B68BB60BB6823F07703BB60FC
:10298C00BB6823F47F43BB607B681B68BA689A60A2
:10299C003B681B68B3F5005F3ED0B3F5005F00F2F7
:1029AC008780B3F5805F00F08680B3F5805F7FD8B9
:1029BC00702B1AD0702B7BD8602B50D0602B77D813
:1029CC00502B3CD0502B73D8402B58D0402B6FD869
:1029DC00302B64D0302B6BD8202B60D0202B67D8B9
:1029EC00002B5CD0102B5AD062E07B6818683B68D7
:1029FC0099683B685A683B68DB6800F06AF97B6849
:102A0C001B689B68BB60BB6843F07703BB607B684B
:102A1C001B68BA689A604FE07B6818683B689968D5
:102A2C003B685A683B68DB6800F053F97B681B68AD
:102A3C009A687B681B6842F480429A603CE07B6831
:102A4C0018683B6859683B68DB681A4600F0CAF89E
:102A5C007B681B685021184600F021F92CE07B683C
:102A6C0018683B6859683B68DB681A4600F0E8F860
:102A7C007B681B686021184600F011F91CE07B682C
:102A8C0018683B6859683B68DB681A4600F0AAF87E
:102A9C007B681B684021184600F001F90CE07B684C
:102AAC001A683B681B681946104600F0F8F803E0FA
:102ABC000123FB7300E000BF7B68012283F83D20FB
:102ACC007B68002283F83C20FB7B18461037BD4600
:102ADC0080BD80B483B000AF786000BF0C37BD46BA
:102AEC0080BC704780B483B000AF786000BF0C37F7
:102AFC00BD4680BC704780B483B000AF786000BF27
:102B0C000C37BD4680BC704780B483B000AF786092
:102B1C0000BF0C37BD4680BC7047000080B485B048
:102B2C0000AF786039607B681B68FB607B682B4A60
:102B3C00934207D07B68B3F1804F03D07B68284A5F
:102B4C00934208D1FB6823F07003FB603B685B6821
:102B5C00FA681343FB607B68204A934207D07B687A
:102B6C00B3F1804F03D07B681D4A934208D1FB68B8
:102B7C0023F44073FB603B68DB68FA681343FB602B
:102B8C00FB6823F080023B685B691343FB607B6846
:102B9C00FA681A603B689A687B68DA623B681A6864
:102BAC007B689A627B680D4A934203D13B681A6931
:102BBC007B681A637B6801225A617B681B6903F08E
:102BCC000103002B05D07B681B6923F001027B6895
:102BDC001A6100BF1437BD4680BC7047002C014001
:102BEC000004004080B487B000AFF860B9607A6030
:102BFC00FB681B6A7B61FB681B6A23F00102FB68A4
:102C0C001A62FB689B693B613B6923F0F0033B61F3
:102C1C007B681B013A6913433B617B6923F00A0310
:102C2C007B617A69BB6813437B61FB683A699A6183
:102C3C00FB687A691A6200BF1C37BD4680BC7047BE
:102C4C0080B487B000AFF860B9607A60FB681B6A2B
:102C5C007B61FB681B6A23F01002FB681A62FB683D
:102C6C009B693B613B6923F470433B617B681B03AD
:102C7C003A6913433B617B6923F0A0037B61BB681A
:102C8C001B017A6913437B61FB683A699A61FB68A3
:102C9C007A691A6200BF1C37BD4680BC704780B48D
:102CAC0085B000AF786039607B689B68FB60FB681F
:102CBC0023F07003FB603A68FB68134343F007038F
:102CCC00FB607B68FA689A6000BF1437BD4680BC15
:102CDC00704780B487B000AFF860B9607A603B6031
:102CEC00FB689B687B617B6923F47F437B613B685A
:102CFC001A027B681A43BB6813437A6913437B61DE
:102D0C00FB687A699A6000BF1C37BD4680BC70476F
:102D1C0080B485B000AF786039607B6893F83C3044
:102D2C00012B01D1022341E07B68012283F83C2076
:102D3C007B68022283F83D207B681B685B68FB6024
:102D4C007B681B689B68BB60FB6823F07003FB60AF
:102D5C003B681B68FA681343FB607B681B68FA6866
:102D6C005A607B681B68144A934209D07B681B68C5
:102D7C00B3F1804F04D07B681B68104A93420CD18E
:102D8C00BB6823F08003BB603B685B68BA68134385
:102D9C00BB607B681B68BA689A607B68012283F809
:102DAC003D207B68002283F83C2000231846143712
:102DBC00BD4680BC704700BF002C014000040040A1
:102DCC0080B483B000AF786000BF0C37BD4680BCC8
:102DDC00704780B483B000AF786000BF0C37BD463D
:102DEC0080BC704770B500260C4D0D4C641BA410B4
:102DFC00A64209D100F022F800260A4D0A4C641BA9
:102E0C00A410A64205D170BD55F8043B9847013675
:102E1C00EEE755F8043B98470136F2E7842E00089C
:102E2C00842E0008842E0008882E000803460244D5
:102E3C00934200D1704703F8011BF9E7F8B500BFC6
:102E4C00F8BC08BC9E467047F8B500BFF8BC08BC7F
:042E5C009E467047D7
:102E6000000000000000000001020304060708093A
:102E700002030405060708090A0B0C0D0E0F1010BB
:042E8000010200004B
:042E84003101000810
:042E88000D01000830
:102E8C000100000001000000010000000100000032
:102E9C000100000001000000010000000100000022
:102EAC000100000001000000010000000100000012
:102EBC00C8000000C8000000C800000005000000A9
:102ECC0002000000030000000100000000127A0064
:082EDC001000000001000000DD
:04000005080017D107
:00000001FF
